{
  "contractName": "MarketMicroGridContract",
  "abi": [
    {
      "anonymous": false,
      "inputs": [
        {
          "indexed": false,
          "internalType": "string",
          "name": "message",
          "type": "string"
        }
      ],
      "name": "BidCreated",
      "type": "event"
    },
    {
      "anonymous": false,
      "inputs": [
        {
          "indexed": false,
          "internalType": "string",
          "name": "message",
          "type": "string"
        }
      ],
      "name": "OfferCreated",
      "type": "event"
    },
    {
      "anonymous": false,
      "inputs": [
        {
          "indexed": false,
          "internalType": "address",
          "name": "sender",
          "type": "address"
        },
        {
          "indexed": false,
          "internalType": "uint256",
          "name": "value",
          "type": "uint256"
        }
      ],
      "name": "TransferReceived",
      "type": "event"
    },
    {
      "inputs": [
        {
          "internalType": "uint256",
          "name": "",
          "type": "uint256"
        }
      ],
      "name": "bids",
      "outputs": [
        {
          "internalType": "address",
          "name": "user",
          "type": "address"
        },
        {
          "internalType": "uint256",
          "name": "maxPrice",
          "type": "uint256"
        },
        {
          "internalType": "uint256",
          "name": "creationDate",
          "type": "uint256"
        }
      ],
      "stateMutability": "view",
      "type": "function",
      "constant": true
    },
    {
      "inputs": [],
      "name": "matchTest",
      "outputs": [
        {
          "internalType": "address",
          "name": "from",
          "type": "address"
        },
        {
          "internalType": "address",
          "name": "to",
          "type": "address"
        },
        {
          "internalType": "uint256",
          "name": "price",
          "type": "uint256"
        },
        {
          "internalType": "uint256",
          "name": "quantity",
          "type": "uint256"
        }
      ],
      "stateMutability": "view",
      "type": "function",
      "constant": true
    },
    {
      "inputs": [
        {
          "internalType": "uint256",
          "name": "",
          "type": "uint256"
        }
      ],
      "name": "matching",
      "outputs": [
        {
          "internalType": "address",
          "name": "from",
          "type": "address"
        },
        {
          "internalType": "address",
          "name": "to",
          "type": "address"
        },
        {
          "internalType": "uint256",
          "name": "price",
          "type": "uint256"
        },
        {
          "internalType": "uint256",
          "name": "quantity",
          "type": "uint256"
        }
      ],
      "stateMutability": "view",
      "type": "function",
      "constant": true
    },
    {
      "inputs": [
        {
          "internalType": "uint256",
          "name": "",
          "type": "uint256"
        }
      ],
      "name": "misuration",
      "outputs": [
        {
          "internalType": "address",
          "name": "user",
          "type": "address"
        },
        {
          "internalType": "uint128",
          "name": "generated",
          "type": "uint128"
        },
        {
          "internalType": "uint128",
          "name": "consumed",
          "type": "uint128"
        }
      ],
      "stateMutability": "view",
      "type": "function",
      "constant": true
    },
    {
      "inputs": [
        {
          "internalType": "uint256",
          "name": "",
          "type": "uint256"
        }
      ],
      "name": "offers",
      "outputs": [
        {
          "internalType": "address",
          "name": "user",
          "type": "address"
        },
        {
          "internalType": "uint256",
          "name": "minPrice",
          "type": "uint256"
        },
        {
          "internalType": "uint256",
          "name": "creationDate",
          "type": "uint256"
        }
      ],
      "stateMutability": "view",
      "type": "function",
      "constant": true
    },
    {
      "inputs": [
        {
          "internalType": "address",
          "name": "",
          "type": "address"
        },
        {
          "internalType": "uint256",
          "name": "",
          "type": "uint256"
        }
      ],
      "name": "userBids",
      "outputs": [
        {
          "internalType": "address",
          "name": "user",
          "type": "address"
        },
        {
          "internalType": "uint256",
          "name": "maxPrice",
          "type": "uint256"
        },
        {
          "internalType": "uint256",
          "name": "creationDate",
          "type": "uint256"
        }
      ],
      "stateMutability": "view",
      "type": "function",
      "constant": true
    },
    {
      "inputs": [
        {
          "internalType": "address",
          "name": "",
          "type": "address"
        },
        {
          "internalType": "uint256",
          "name": "",
          "type": "uint256"
        }
      ],
      "name": "userOffers",
      "outputs": [
        {
          "internalType": "address",
          "name": "user",
          "type": "address"
        },
        {
          "internalType": "uint256",
          "name": "minPrice",
          "type": "uint256"
        },
        {
          "internalType": "uint256",
          "name": "creationDate",
          "type": "uint256"
        }
      ],
      "stateMutability": "view",
      "type": "function",
      "constant": true
    },
    {
      "inputs": [
        {
          "internalType": "address",
          "name": "",
          "type": "address"
        }
      ],
      "name": "userPayment",
      "outputs": [
        {
          "internalType": "uint256",
          "name": "",
          "type": "uint256"
        }
      ],
      "stateMutability": "view",
      "type": "function",
      "constant": true
    },
    {
      "inputs": [
        {
          "internalType": "address",
          "name": "_address",
          "type": "address"
        },
        {
          "internalType": "uint256",
          "name": "_maxPrice",
          "type": "uint256"
        },
        {
          "internalType": "uint256",
          "name": "_creationDate",
          "type": "uint256"
        }
      ],
      "name": "createOffer",
      "outputs": [],
      "stateMutability": "nonpayable",
      "type": "function"
    },
    {
      "inputs": [],
      "name": "deleteAllOffers",
      "outputs": [],
      "stateMutability": "nonpayable",
      "type": "function"
    },
    {
      "inputs": [
        {
          "internalType": "address",
          "name": "_address",
          "type": "address"
        },
        {
          "internalType": "uint256",
          "name": "_minPrice",
          "type": "uint256"
        },
        {
          "internalType": "uint256",
          "name": "_creationDate",
          "type": "uint256"
        }
      ],
      "name": "createBid",
      "outputs": [],
      "stateMutability": "nonpayable",
      "type": "function"
    },
    {
      "inputs": [
        {
          "internalType": "address",
          "name": "_address",
          "type": "address"
        },
        {
          "internalType": "uint128",
          "name": "_produced",
          "type": "uint128"
        },
        {
          "internalType": "uint128",
          "name": "_consumed",
          "type": "uint128"
        }
      ],
      "name": "addMisuration",
      "outputs": [],
      "stateMutability": "nonpayable",
      "type": "function"
    },
    {
      "inputs": [],
      "name": "getOffers",
      "outputs": [
        {
          "components": [
            {
              "internalType": "address",
              "name": "user",
              "type": "address"
            },
            {
              "internalType": "uint256",
              "name": "minPrice",
              "type": "uint256"
            },
            {
              "internalType": "uint256",
              "name": "creationDate",
              "type": "uint256"
            }
          ],
          "internalType": "struct MarketMicroGridContract.Offer[]",
          "name": "",
          "type": "tuple[]"
        }
      ],
      "stateMutability": "view",
      "type": "function",
      "constant": true
    },
    {
      "inputs": [
        {
          "internalType": "address",
          "name": "_address",
          "type": "address"
        }
      ],
      "name": "getOffersByAddress",
      "outputs": [
        {
          "components": [
            {
              "internalType": "address",
              "name": "user",
              "type": "address"
            },
            {
              "internalType": "uint256",
              "name": "minPrice",
              "type": "uint256"
            },
            {
              "internalType": "uint256",
              "name": "creationDate",
              "type": "uint256"
            }
          ],
          "internalType": "struct MarketMicroGridContract.Offer[]",
          "name": "",
          "type": "tuple[]"
        }
      ],
      "stateMutability": "view",
      "type": "function",
      "constant": true
    },
    {
      "inputs": [
        {
          "internalType": "address",
          "name": "_address",
          "type": "address"
        }
      ],
      "name": "getBidsByAddress",
      "outputs": [
        {
          "components": [
            {
              "internalType": "address",
              "name": "user",
              "type": "address"
            },
            {
              "internalType": "uint256",
              "name": "maxPrice",
              "type": "uint256"
            },
            {
              "internalType": "uint256",
              "name": "creationDate",
              "type": "uint256"
            }
          ],
          "internalType": "struct MarketMicroGridContract.Bid[]",
          "name": "",
          "type": "tuple[]"
        }
      ],
      "stateMutability": "view",
      "type": "function",
      "constant": true
    },
    {
      "inputs": [],
      "name": "getBids",
      "outputs": [
        {
          "components": [
            {
              "internalType": "address",
              "name": "user",
              "type": "address"
            },
            {
              "internalType": "uint256",
              "name": "maxPrice",
              "type": "uint256"
            },
            {
              "internalType": "uint256",
              "name": "creationDate",
              "type": "uint256"
            }
          ],
          "internalType": "struct MarketMicroGridContract.Bid[]",
          "name": "",
          "type": "tuple[]"
        }
      ],
      "stateMutability": "view",
      "type": "function",
      "constant": true
    },
    {
      "inputs": [
        {
          "components": [
            {
              "internalType": "address",
              "name": "from",
              "type": "address"
            },
            {
              "internalType": "address",
              "name": "to",
              "type": "address"
            },
            {
              "internalType": "uint256",
              "name": "price",
              "type": "uint256"
            },
            {
              "internalType": "uint256",
              "name": "quantity",
              "type": "uint256"
            }
          ],
          "internalType": "struct MarketMicroGridContract.Matching[]",
          "name": "_matchingList",
          "type": "tuple[]"
        }
      ],
      "name": "createMatch",
      "outputs": [],
      "stateMutability": "nonpayable",
      "type": "function"
    },
    {
      "inputs": [],
      "name": "getMatch",
      "outputs": [
        {
          "components": [
            {
              "internalType": "address",
              "name": "from",
              "type": "address"
            },
            {
              "internalType": "address",
              "name": "to",
              "type": "address"
            },
            {
              "internalType": "uint256",
              "name": "price",
              "type": "uint256"
            },
            {
              "internalType": "uint256",
              "name": "quantity",
              "type": "uint256"
            }
          ],
          "internalType": "struct MarketMicroGridContract.Matching[]",
          "name": "",
          "type": "tuple[]"
        }
      ],
      "stateMutability": "view",
      "type": "function",
      "constant": true
    },
    {
      "inputs": [
        {
          "internalType": "address",
          "name": "_address",
          "type": "address"
        },
        {
          "internalType": "uint256",
          "name": "_price",
          "type": "uint256"
        }
      ],
      "name": "createPaymentTransaction",
      "outputs": [],
      "stateMutability": "nonpayable",
      "type": "function"
    },
    {
      "inputs": [
        {
          "internalType": "address",
          "name": "_address",
          "type": "address"
        }
      ],
      "name": "getPaymentTransaction",
      "outputs": [
        {
          "internalType": "uint256",
          "name": "",
          "type": "uint256"
        }
      ],
      "stateMutability": "view",
      "type": "function",
      "constant": true
    },
    {
      "inputs": [],
      "name": "pay",
      "outputs": [],
      "stateMutability": "payable",
      "type": "function",
      "payable": true
    }
  ],
  "bytecode": "0x608060405234801561001057600080fd5b506120fc806100206000396000f3fe60806040526004361061012a5760003560e01c80638a72ea6a116100ab578063bfa5e00d1161006f578063bfa5e00d14610409578063c22f5c6b14610446578063eae970561461046f578063ee9b66ec146104ac578063fba133d9146104e9578063ff8b77ec146105125761012a565b80638a72ea6a146102e257806396ec50c314610321578063aae758ea14610360578063b81c78ec1461039f578063bd5fec65146103ca5761012a565b80633d8a03af116100f25780633d8a03af146101e75780633ee992ee146102125780634423c5f11461023d57806369043ba31461027c5780637e55aca5146102b95761012a565b80631b9265b81461012f5780631c6c7128146101395780632415d6921461016257806326835e3c146101a2578063322fba27146101d0575b600080fd5b61013761053b565b005b34801561014557600080fd5b50610160600480360381019061015b91906116ab565b610576565b005b34801561016e57600080fd5b50610189600480360381019061018491906116fe565b61075f565b6040516101999493929190611749565b60405180910390f35b3480156101ae57600080fd5b506101b76107df565b6040516101c79493929190611749565b60405180910390f35b3480156101dc57600080fd5b506101e561083d565b005b3480156101f357600080fd5b506101fc61084c565b60405161020991906118b0565b60405180910390f35b34801561021e57600080fd5b5061022761096b565b60405161023491906119c3565b60405180910390f35b34801561024957600080fd5b50610264600480360381019061025f91906116fe565b610a34565b604051610273939291906119e5565b60405180910390f35b34801561028857600080fd5b506102a3600480360381019061029e9190611a1c565b610a8e565b6040516102b09190611a49565b60405180910390f35b3480156102c557600080fd5b506102e060048036038101906102db9190611aac565b610ad7565b005b3480156102ee57600080fd5b50610309600480360381019061030491906116fe565b610c23565b604051610318939291906119e5565b60405180910390f35b34801561032d57600080fd5b5061034860048036038101906103439190611aff565b610c7d565b604051610357939291906119e5565b60405180910390f35b34801561036c57600080fd5b50610387600480360381019061038291906116fe565b610ce4565b60405161039693929190611b4e565b60405180910390f35b3480156103ab57600080fd5b506103b4610d76565b6040516103c19190611c76565b60405180910390f35b3480156103d657600080fd5b506103f160048036038101906103ec9190611aff565b610e3f565b604051610400939291906119e5565b60405180910390f35b34801561041557600080fd5b50610430600480360381019061042b9190611a1c565b610ea6565b60405161043d91906119c3565b60405180910390f35b34801561045257600080fd5b5061046d60048036038101906104689190611e6e565b610fae565b005b34801561047b57600080fd5b5061049660048036038101906104919190611a1c565b611165565b6040516104a39190611a49565b60405180910390f35b3480156104b857600080fd5b506104d360048036038101906104ce9190611a1c565b61117d565b6040516104e09190611c76565b60405180910390f35b3480156104f557600080fd5b50610510600480360381019061050b91906116ab565b611285565b005b34801561051e57600080fd5b5061053960048036038101906105349190611aff565b61146e565b005b7ff1b03f708b9c39f453fe3f0cef84164c7d6f7df836df0796e1e9c2bce6ee397e333460405161056c929190611eb7565b60405180910390a1565b600060405180606001604052808573ffffffffffffffffffffffffffffffffffffffff16815260200184815260200183815250908060018154018082558091505060019003906000526020600020906003020160009091909190915060008201518160000160006101000a81548173ffffffffffffffffffffffffffffffffffffffff021916908373ffffffffffffffffffffffffffffffffffffffff16021790555060208201518160010155604082015181600201555050600860008473ffffffffffffffffffffffffffffffffffffffff1673ffffffffffffffffffffffffffffffffffffffff16815260200190815260200160002060405180606001604052808573ffffffffffffffffffffffffffffffffffffffff16815260200184815260200183815250908060018154018082558091505060019003906000526020600020906003020160009091909190915060008201518160000160006101000a81548173ffffffffffffffffffffffffffffffffffffffff021916908373ffffffffffffffffffffffffffffffffffffffff160217905550602082015181600101556040820151816002015550507fab5385bdf2087954d79841430d81dc464fd9ac11bbf521d2d9d83f8ca22f260560405161075290611f3d565b60405180910390a1505050565b6003818154811061076f57600080fd5b90600052602060002090600402016000915090508060000160009054906101000a900473ffffffffffffffffffffffffffffffffffffffff16908060010160009054906101000a900473ffffffffffffffffffffffffffffffffffffffff16908060020154908060030154905084565b60048060000160009054906101000a900473ffffffffffffffffffffffffffffffffffffffff16908060010160009054906101000a900473ffffffffffffffffffffffffffffffffffffffff16908060020154908060030154905084565b60008061084a9190611591565b565b60606003805480602002602001604051908101604052809291908181526020016000905b8282101561096257838290600052602060002090600402016040518060800160405290816000820160009054906101000a900473ffffffffffffffffffffffffffffffffffffffff1673ffffffffffffffffffffffffffffffffffffffff1673ffffffffffffffffffffffffffffffffffffffff1681526020016001820160009054906101000a900473ffffffffffffffffffffffffffffffffffffffff1673ffffffffffffffffffffffffffffffffffffffff1673ffffffffffffffffffffffffffffffffffffffff1681526020016002820154815260200160038201548152505081526020019060010190610870565b50505050905090565b60606000805480602002602001604051908101604052809291908181526020016000905b82821015610a2b57838290600052602060002090600302016040518060600160405290816000820160009054906101000a900473ffffffffffffffffffffffffffffffffffffffff1673ffffffffffffffffffffffffffffffffffffffff1673ffffffffffffffffffffffffffffffffffffffff168152602001600182015481526020016002820154815250508152602001906001019061098f565b50505050905090565b60018181548110610a4457600080fd5b90600052602060002090600302016000915090508060000160009054906101000a900473ffffffffffffffffffffffffffffffffffffffff16908060010154908060020154905083565b6000600a60008373ffffffffffffffffffffffffffffffffffffffff1673ffffffffffffffffffffffffffffffffffffffff168152602001908152602001600020549050919050565b600260405180606001604052808573ffffffffffffffffffffffffffffffffffffffff168152602001846fffffffffffffffffffffffffffffffff168152602001836fffffffffffffffffffffffffffffffff16815250908060018154018082558091505060019003906000526020600020906002020160009091909190915060008201518160000160006101000a81548173ffffffffffffffffffffffffffffffffffffffff021916908373ffffffffffffffffffffffffffffffffffffffff16021790555060208201518160010160006101000a8154816fffffffffffffffffffffffffffffffff02191690836fffffffffffffffffffffffffffffffff16021790555060408201518160010160106101000a8154816fffffffffffffffffffffffffffffffff02191690836fffffffffffffffffffffffffffffffff1602179055505050505050565b60008181548110610c3357600080fd5b90600052602060002090600302016000915090508060000160009054906101000a900473ffffffffffffffffffffffffffffffffffffffff16908060010154908060020154905083565b60096020528160005260406000208181548110610c9957600080fd5b9060005260206000209060030201600091509150508060000160009054906101000a900473ffffffffffffffffffffffffffffffffffffffff16908060010154908060020154905083565b60028181548110610cf457600080fd5b90600052602060002090600202016000915090508060000160009054906101000a900473ffffffffffffffffffffffffffffffffffffffff16908060010160009054906101000a90046fffffffffffffffffffffffffffffffff16908060010160109054906101000a90046fffffffffffffffffffffffffffffffff16905083565b60606001805480602002602001604051908101604052809291908181526020016000905b82821015610e3657838290600052602060002090600302016040518060600160405290816000820160009054906101000a900473ffffffffffffffffffffffffffffffffffffffff1673ffffffffffffffffffffffffffffffffffffffff1673ffffffffffffffffffffffffffffffffffffffff1681526020016001820154815260200160028201548152505081526020019060010190610d9a565b50505050905090565b60086020528160005260406000208181548110610e5b57600080fd5b9060005260206000209060030201600091509150508060000160009054906101000a900473ffffffffffffffffffffffffffffffffffffffff16908060010154908060020154905083565b6060600860008373ffffffffffffffffffffffffffffffffffffffff1673ffffffffffffffffffffffffffffffffffffffff168152602001908152602001600020805480602002602001604051908101604052809291908181526020016000905b82821015610fa357838290600052602060002090600302016040518060600160405290816000820160009054906101000a900473ffffffffffffffffffffffffffffffffffffffff1673ffffffffffffffffffffffffffffffffffffffff1673ffffffffffffffffffffffffffffffffffffffff1681526020016001820154815260200160028201548152505081526020019060010190610f07565b505050509050919050565b60005b81518110156111615760036040518060800160405280848481518110610fda57610fd9611f5d565b5b60200260200101516000015173ffffffffffffffffffffffffffffffffffffffff16815260200184848151811061101457611013611f5d565b5b60200260200101516020015173ffffffffffffffffffffffffffffffffffffffff16815260200184848151811061104e5761104d611f5d565b5b602002602001015160400151815260200184848151811061107257611071611f5d565b5b602002602001015160600151815250908060018154018082558091505060019003906000526020600020906004020160009091909190915060008201518160000160006101000a81548173ffffffffffffffffffffffffffffffffffffffff021916908373ffffffffffffffffffffffffffffffffffffffff16021790555060208201518160010160006101000a81548173ffffffffffffffffffffffffffffffffffffffff021916908373ffffffffffffffffffffffffffffffffffffffff16021790555060408201518160020155606082015181600301555050808061115990611fbb565b915050610fb1565b5050565b600a6020528060005260406000206000915090505481565b6060600960008373ffffffffffffffffffffffffffffffffffffffff1673ffffffffffffffffffffffffffffffffffffffff168152602001908152602001600020805480602002602001604051908101604052809291908181526020016000905b8282101561127a57838290600052602060002090600302016040518060600160405290816000820160009054906101000a900473ffffffffffffffffffffffffffffffffffffffff1673ffffffffffffffffffffffffffffffffffffffff1673ffffffffffffffffffffffffffffffffffffffff16815260200160018201548152602001600282015481525050815260200190600101906111de565b505050509050919050565b600160405180606001604052808573ffffffffffffffffffffffffffffffffffffffff16815260200184815260200183815250908060018154018082558091505060019003906000526020600020906003020160009091909190915060008201518160000160006101000a81548173ffffffffffffffffffffffffffffffffffffffff021916908373ffffffffffffffffffffffffffffffffffffffff16021790555060208201518160010155604082015181600201555050600960008473ffffffffffffffffffffffffffffffffffffffff1673ffffffffffffffffffffffffffffffffffffffff16815260200190815260200160002060405180606001604052808573ffffffffffffffffffffffffffffffffffffffff16815260200184815260200183815250908060018154018082558091505060019003906000526020600020906003020160009091909190915060008201518160000160006101000a81548173ffffffffffffffffffffffffffffffffffffffff021916908373ffffffffffffffffffffffffffffffffffffffff160217905550602082015181600101556040820151816002015550507fcc7badc6f30b4a8ffc7e82154af1dd338ed51ba086fb172b940e62155f7cce6a60405161146190612050565b60405180910390a1505050565b6000600a60008473ffffffffffffffffffffffffffffffffffffffff1673ffffffffffffffffffffffffffffffffffffffff16815260200190815260200160002054146115485780600a60008473ffffffffffffffffffffffffffffffffffffffff1673ffffffffffffffffffffffffffffffffffffffff168152602001908152602001600020546115009190612070565b600a60008473ffffffffffffffffffffffffffffffffffffffff1673ffffffffffffffffffffffffffffffffffffffff1681526020019081526020016000208190555061158d565b80600a60008473ffffffffffffffffffffffffffffffffffffffff1673ffffffffffffffffffffffffffffffffffffffff168152602001908152602001600020819055505b5050565b50805460008255600302906000526020600020908101906115b291906115b5565b50565b5b808211156115ff57600080820160006101000a81549073ffffffffffffffffffffffffffffffffffffffff021916905560018201600090556002820160009055506003016115b6565b5090565b6000604051905090565b600080fd5b600080fd5b600073ffffffffffffffffffffffffffffffffffffffff82169050919050565b600061164282611617565b9050919050565b61165281611637565b811461165d57600080fd5b50565b60008135905061166f81611649565b92915050565b6000819050919050565b61168881611675565b811461169357600080fd5b50565b6000813590506116a58161167f565b92915050565b6000806000606084860312156116c4576116c361160d565b5b60006116d286828701611660565b93505060206116e386828701611696565b92505060406116f486828701611696565b9150509250925092565b6000602082840312156117145761171361160d565b5b600061172284828501611696565b91505092915050565b61173481611637565b82525050565b61174381611675565b82525050565b600060808201905061175e600083018761172b565b61176b602083018661172b565b611778604083018561173a565b611785606083018461173a565b95945050505050565b600081519050919050565b600082825260208201905092915050565b6000819050602082019050919050565b6117c381611637565b82525050565b6117d281611675565b82525050565b6080820160008201516117ee60008501826117ba565b50602082015161180160208501826117ba565b50604082015161181460408501826117c9565b50606082015161182760608501826117c9565b50505050565b600061183983836117d8565b60808301905092915050565b6000602082019050919050565b600061185d8261178e565b6118678185611799565b9350611872836117aa565b8060005b838110156118a357815161188a888261182d565b975061189583611845565b925050600181019050611876565b5085935050505092915050565b600060208201905081810360008301526118ca8184611852565b905092915050565b600081519050919050565b600082825260208201905092915050565b6000819050602082019050919050565b60608201600082015161191460008501826117ba565b50602082015161192760208501826117c9565b50604082015161193a60408501826117c9565b50505050565b600061194c83836118fe565b60608301905092915050565b6000602082019050919050565b6000611970826118d2565b61197a81856118dd565b9350611985836118ee565b8060005b838110156119b657815161199d8882611940565b97506119a883611958565b925050600181019050611989565b5085935050505092915050565b600060208201905081810360008301526119dd8184611965565b905092915050565b60006060820190506119fa600083018661172b565b611a07602083018561173a565b611a14604083018461173a565b949350505050565b600060208284031215611a3257611a3161160d565b5b6000611a4084828501611660565b91505092915050565b6000602082019050611a5e600083018461173a565b92915050565b60006fffffffffffffffffffffffffffffffff82169050919050565b611a8981611a64565b8114611a9457600080fd5b50565b600081359050611aa681611a80565b92915050565b600080600060608486031215611ac557611ac461160d565b5b6000611ad386828701611660565b9350506020611ae486828701611a97565b9250506040611af586828701611a97565b9150509250925092565b60008060408385031215611b1657611b1561160d565b5b6000611b2485828601611660565b9250506020611b3585828601611696565b9150509250929050565b611b4881611a64565b82525050565b6000606082019050611b63600083018661172b565b611b706020830185611b3f565b611b7d6040830184611b3f565b949350505050565b600081519050919050565b600082825260208201905092915050565b6000819050602082019050919050565b606082016000820151611bc760008501826117ba565b506020820151611bda60208501826117c9565b506040820151611bed60408501826117c9565b50505050565b6000611bff8383611bb1565b60608301905092915050565b6000602082019050919050565b6000611c2382611b85565b611c2d8185611b90565b9350611c3883611ba1565b8060005b83811015611c69578151611c508882611bf3565b9750611c5b83611c0b565b925050600181019050611c3c565b5085935050505092915050565b60006020820190508181036000830152611c908184611c18565b905092915050565b600080fd5b6000601f19601f8301169050919050565b7f4e487b7100000000000000000000000000000000000000000000000000000000600052604160045260246000fd5b611ce682611c9d565b810181811067ffffffffffffffff82111715611d0557611d04611cae565b5b80604052505050565b6000611d18611603565b9050611d248282611cdd565b919050565b600067ffffffffffffffff821115611d4457611d43611cae565b5b602082029050602081019050919050565b600080fd5b600080fd5b600060808284031215611d7557611d74611d5a565b5b611d7f6080611d0e565b90506000611d8f84828501611660565b6000830152506020611da384828501611660565b6020830152506040611db784828501611696565b6040830152506060611dcb84828501611696565b60608301525092915050565b6000611dea611de584611d29565b611d0e565b90508083825260208201905060808402830185811115611e0d57611e0c611d55565b5b835b81811015611e365780611e228882611d5f565b845260208401935050608081019050611e0f565b5050509392505050565b600082601f830112611e5557611e54611c98565b5b8135611e65848260208601611dd7565b91505092915050565b600060208284031215611e8457611e8361160d565b5b600082013567ffffffffffffffff811115611ea257611ea1611612565b5b611eae84828501611e40565b91505092915050565b6000604082019050611ecc600083018561172b565b611ed9602083018461173a565b9392505050565b600082825260208201905092915050565b7f4f6666657220637265617465642073756363657366756c6c7900000000000000600082015250565b6000611f27601983611ee0565b9150611f3282611ef1565b602082019050919050565b60006020820190508181036000830152611f5681611f1a565b9050919050565b7f4e487b7100000000000000000000000000000000000000000000000000000000600052603260045260246000fd5b7f4e487b7100000000000000000000000000000000000000000000000000000000600052601160045260246000fd5b6000611fc682611675565b91507fffffffffffffffffffffffffffffffffffffffffffffffffffffffffffffffff821415611ff957611ff8611f8c565b5b600182019050919050565b7f4269642063726561746564000000000000000000000000000000000000000000600082015250565b600061203a600b83611ee0565b915061204582612004565b602082019050919050565b600060208201905081810360008301526120698161202d565b9050919050565b600061207b82611675565b915061208683611675565b9250827fffffffffffffffffffffffffffffffffffffffffffffffffffffffffffffffff038211156120bb576120ba611f8c565b5b82820190509291505056fea2646970667358221220723af04e2a863d12333e6f2eaeb34758ec15edf8b518c372a2a440e94b98207764736f6c634300080b0033",
  "immutableReferences": {},
  "source": "// SPDX-License-Identifier: MIT\r\n\r\npragma solidity ^0.8.11;\r\n\r\ncontract MarketMicroGridContract {\r\n    struct Offer {\r\n        address user;\r\n        /**\r\n           minumum price which user is willing to sell\r\n         */\r\n        uint256 minPrice;\r\n        uint creationDate;\r\n    }\r\n\r\n    struct Bid {\r\n        address user;\r\n        uint256 maxPrice;\r\n        uint creationDate;\r\n    }\r\n\r\n    struct SmartMisuration {\r\n        address user;\r\n        /* Define energy that has been generated from user */\r\n        uint128 generated;\r\n        /** Define energy that has been consumed from user in time range (es. each 15min ) */\r\n        uint128 consumed;\r\n    }\r\n\r\n    struct Matching {\r\n        address from;\r\n        address to;\r\n        uint256 price;\r\n        uint256 quantity;\r\n    }\r\n\r\n    Offer[] public offers;\r\n    Bid[] public bids;\r\n    SmartMisuration[] public misuration;\r\n    Matching[] public matching;\r\n    Matching public matchTest;\r\n\r\n    mapping(address => Offer[]) public userOffers;\r\n    mapping(address => Bid[]) public userBids;\r\n\r\n    mapping(address => uint256) public userPayment;\r\n\r\n    /**Events */\r\n    event OfferCreated(string message);\r\n    event BidCreated(string message);\r\n    event TransferReceived(address sender, uint256 value);\r\n\r\n    /**Functions */\r\n    function createOffer(\r\n        address _address,\r\n        uint256 _maxPrice,\r\n        uint _creationDate\r\n    ) external {\r\n        offers.push(Offer(_address, _maxPrice, _creationDate));\r\n        userOffers[_address].push(Offer(_address, _maxPrice, _creationDate));\r\n        emit OfferCreated(\"Offer created succesfully\");\r\n    }\r\n\r\n    function deleteAllOffers() external {\r\n        delete offers;\r\n    }\r\n\r\n    function createBid(\r\n        address _address,\r\n        uint256 _minPrice,\r\n        uint _creationDate\r\n    ) external {\r\n        bids.push(Bid(_address, _minPrice, _creationDate));\r\n        userBids[_address].push(Bid(_address, _minPrice, _creationDate));\r\n        emit BidCreated(\"Bid created\");\r\n    }\r\n\r\n    function addMisuration(\r\n        address _address,\r\n        uint128 _produced,\r\n        uint128 _consumed\r\n    ) external {\r\n        misuration.push(SmartMisuration(_address, _produced, _consumed));\r\n    }\r\n\r\n    function getOffers() public view returns (Offer[] memory) {\r\n        return offers;\r\n    }\r\n\r\n    function getOffersByAddress(\r\n        address _address\r\n    ) public view returns (Offer[] memory) {\r\n        return userOffers[_address];\r\n    }\r\n\r\n    function getBidsByAddress(\r\n        address _address\r\n    ) public view returns (Bid[] memory) {\r\n        return userBids[_address];\r\n    }\r\n\r\n    function getBids() public view returns (Bid[] memory) {\r\n        return bids;\r\n    }\r\n\r\n    function createMatch(Matching[] memory _matchingList) external {\r\n        for (uint i = 0; i < _matchingList.length; i++) {\r\n            matching.push(\r\n                Matching(\r\n                    _matchingList[i].from,\r\n                    _matchingList[i].to,\r\n                    _matchingList[i].price,\r\n                    _matchingList[i].quantity\r\n                )\r\n            );\r\n        }\r\n    }\r\n\r\n    function getMatch() public view returns (Matching[] memory) {\r\n        return matching;\r\n    }\r\n\r\n    // --- Payment ----\r\n\r\n    function createPaymentTransaction(\r\n        address _address,\r\n        uint256 _price\r\n    ) external {\r\n        if (userPayment[_address] != 0) {\r\n            userPayment[_address] = userPayment[_address] + _price;\r\n        } else {\r\n            userPayment[_address] = _price;\r\n        }\r\n    }\r\n\r\n    function getPaymentTransaction(\r\n        address _address\r\n    ) public view returns (uint) {\r\n        return userPayment[_address];\r\n    }\r\n\r\n    function pay() external payable {\r\n        emit TransferReceived(msg.sender, msg.value);\r\n    }\r\n}\r\n",
  "sourcePath": "C:\\Users\\salva\\OneDrive\\Desktop\\progetto-tesi\\EW-did-management\\blockchain\\contracts\\MarketMicroGrid.sol",
  "compiler": {
    "name": "solc",
    "version": "0.8.11+commit.d7f03943.Emscripten.clang"
  },
  "schemaVersion": "3.4.13",
  "updatedAt": "2023-04-24T14:25:30.003Z",
  "networkType": "ethereum",
  "devdoc": {
    "kind": "dev",
    "methods": {},
    "version": 1
  },
  "userdoc": {
    "events": {
      "OfferCreated(string)": {
        "notice": "Events "
      }
    },
    "kind": "user",
    "methods": {
      "createOffer(address,uint256,uint256)": {
        "notice": "Functions "
      }
    },
    "version": 1
  }
}