{
  "contractName": "MarketMicroGridContract",
  "abi": [
    {
      "anonymous": false,
      "inputs": [
        {
          "indexed": false,
          "internalType": "string",
          "name": "message",
          "type": "string"
        }
      ],
      "name": "BidCreated",
      "type": "event"
    },
    {
      "anonymous": false,
      "inputs": [
        {
          "indexed": false,
          "internalType": "address",
          "name": "sender",
          "type": "address"
        },
        {
          "indexed": false,
          "internalType": "string",
          "name": "message",
          "type": "string"
        }
      ],
      "name": "MoneyReceived",
      "type": "event"
    },
    {
      "anonymous": false,
      "inputs": [
        {
          "indexed": false,
          "internalType": "string",
          "name": "message",
          "type": "string"
        }
      ],
      "name": "OfferCreated",
      "type": "event"
    },
    {
      "anonymous": false,
      "inputs": [
        {
          "indexed": false,
          "internalType": "address",
          "name": "sender",
          "type": "address"
        },
        {
          "indexed": false,
          "internalType": "uint256",
          "name": "value",
          "type": "uint256"
        }
      ],
      "name": "TransferReceived",
      "type": "event"
    },
    {
      "inputs": [
        {
          "internalType": "uint256",
          "name": "",
          "type": "uint256"
        }
      ],
      "name": "bids",
      "outputs": [
        {
          "internalType": "address",
          "name": "user",
          "type": "address"
        },
        {
          "internalType": "uint256",
          "name": "maxPrice",
          "type": "uint256"
        },
        {
          "internalType": "uint256",
          "name": "creationDate",
          "type": "uint256"
        }
      ],
      "stateMutability": "view",
      "type": "function",
      "constant": true
    },
    {
      "inputs": [
        {
          "internalType": "uint256",
          "name": "",
          "type": "uint256"
        }
      ],
      "name": "offers",
      "outputs": [
        {
          "internalType": "address",
          "name": "user",
          "type": "address"
        },
        {
          "internalType": "uint256",
          "name": "minPrice",
          "type": "uint256"
        },
        {
          "internalType": "uint256",
          "name": "creationDate",
          "type": "uint256"
        }
      ],
      "stateMutability": "view",
      "type": "function",
      "constant": true
    },
    {
      "inputs": [
        {
          "internalType": "address",
          "name": "",
          "type": "address"
        },
        {
          "internalType": "uint256",
          "name": "",
          "type": "uint256"
        }
      ],
      "name": "userBids",
      "outputs": [
        {
          "internalType": "address",
          "name": "user",
          "type": "address"
        },
        {
          "internalType": "uint256",
          "name": "maxPrice",
          "type": "uint256"
        },
        {
          "internalType": "uint256",
          "name": "creationDate",
          "type": "uint256"
        }
      ],
      "stateMutability": "view",
      "type": "function",
      "constant": true
    },
    {
      "inputs": [
        {
          "internalType": "address",
          "name": "",
          "type": "address"
        },
        {
          "internalType": "uint256",
          "name": "",
          "type": "uint256"
        }
      ],
      "name": "userOffers",
      "outputs": [
        {
          "internalType": "address",
          "name": "user",
          "type": "address"
        },
        {
          "internalType": "uint256",
          "name": "minPrice",
          "type": "uint256"
        },
        {
          "internalType": "uint256",
          "name": "creationDate",
          "type": "uint256"
        }
      ],
      "stateMutability": "view",
      "type": "function",
      "constant": true
    },
    {
      "inputs": [
        {
          "internalType": "address",
          "name": "",
          "type": "address"
        }
      ],
      "name": "userPayment",
      "outputs": [
        {
          "internalType": "int256",
          "name": "",
          "type": "int256"
        }
      ],
      "stateMutability": "view",
      "type": "function",
      "constant": true
    },
    {
      "inputs": [
        {
          "internalType": "address",
          "name": "_address",
          "type": "address"
        },
        {
          "internalType": "uint256",
          "name": "_maxPrice",
          "type": "uint256"
        },
        {
          "internalType": "uint256",
          "name": "_creationDate",
          "type": "uint256"
        }
      ],
      "name": "createOffer",
      "outputs": [],
      "stateMutability": "nonpayable",
      "type": "function"
    },
    {
      "inputs": [],
      "name": "deleteAllOffers",
      "outputs": [],
      "stateMutability": "nonpayable",
      "type": "function"
    },
    {
      "inputs": [
        {
          "internalType": "address",
          "name": "_address",
          "type": "address"
        },
        {
          "internalType": "uint256",
          "name": "_minPrice",
          "type": "uint256"
        },
        {
          "internalType": "uint256",
          "name": "_creationDate",
          "type": "uint256"
        }
      ],
      "name": "createBid",
      "outputs": [],
      "stateMutability": "nonpayable",
      "type": "function"
    },
    {
      "inputs": [],
      "name": "getOffers",
      "outputs": [
        {
          "components": [
            {
              "internalType": "address",
              "name": "user",
              "type": "address"
            },
            {
              "internalType": "uint256",
              "name": "minPrice",
              "type": "uint256"
            },
            {
              "internalType": "uint256",
              "name": "creationDate",
              "type": "uint256"
            }
          ],
          "internalType": "struct MarketMicroGridContract.Offer[]",
          "name": "",
          "type": "tuple[]"
        }
      ],
      "stateMutability": "view",
      "type": "function",
      "constant": true
    },
    {
      "inputs": [
        {
          "internalType": "address",
          "name": "_address",
          "type": "address"
        }
      ],
      "name": "getOffersByAddress",
      "outputs": [
        {
          "components": [
            {
              "internalType": "address",
              "name": "user",
              "type": "address"
            },
            {
              "internalType": "uint256",
              "name": "minPrice",
              "type": "uint256"
            },
            {
              "internalType": "uint256",
              "name": "creationDate",
              "type": "uint256"
            }
          ],
          "internalType": "struct MarketMicroGridContract.Offer[]",
          "name": "",
          "type": "tuple[]"
        }
      ],
      "stateMutability": "view",
      "type": "function",
      "constant": true
    },
    {
      "inputs": [
        {
          "internalType": "address",
          "name": "_address",
          "type": "address"
        }
      ],
      "name": "getBidsByAddress",
      "outputs": [
        {
          "components": [
            {
              "internalType": "address",
              "name": "user",
              "type": "address"
            },
            {
              "internalType": "uint256",
              "name": "maxPrice",
              "type": "uint256"
            },
            {
              "internalType": "uint256",
              "name": "creationDate",
              "type": "uint256"
            }
          ],
          "internalType": "struct MarketMicroGridContract.Bid[]",
          "name": "",
          "type": "tuple[]"
        }
      ],
      "stateMutability": "view",
      "type": "function",
      "constant": true
    },
    {
      "inputs": [],
      "name": "getBids",
      "outputs": [
        {
          "components": [
            {
              "internalType": "address",
              "name": "user",
              "type": "address"
            },
            {
              "internalType": "uint256",
              "name": "maxPrice",
              "type": "uint256"
            },
            {
              "internalType": "uint256",
              "name": "creationDate",
              "type": "uint256"
            }
          ],
          "internalType": "struct MarketMicroGridContract.Bid[]",
          "name": "",
          "type": "tuple[]"
        }
      ],
      "stateMutability": "view",
      "type": "function",
      "constant": true
    },
    {
      "inputs": [
        {
          "internalType": "address",
          "name": "_address",
          "type": "address"
        },
        {
          "internalType": "int256",
          "name": "_price",
          "type": "int256"
        }
      ],
      "name": "createPaymentTransaction",
      "outputs": [],
      "stateMutability": "nonpayable",
      "type": "function"
    },
    {
      "inputs": [
        {
          "internalType": "address",
          "name": "_address",
          "type": "address"
        }
      ],
      "name": "resetPayment",
      "outputs": [],
      "stateMutability": "nonpayable",
      "type": "function"
    },
    {
      "inputs": [
        {
          "internalType": "address",
          "name": "_address",
          "type": "address"
        }
      ],
      "name": "getPaymentTransaction",
      "outputs": [
        {
          "internalType": "int256",
          "name": "",
          "type": "int256"
        }
      ],
      "stateMutability": "view",
      "type": "function",
      "constant": true
    },
    {
      "inputs": [
        {
          "internalType": "int256",
          "name": "price",
          "type": "int256"
        }
      ],
      "name": "pay",
      "outputs": [],
      "stateMutability": "payable",
      "type": "function",
      "payable": true
    },
    {
      "inputs": [
        {
          "internalType": "address payable",
          "name": "_address",
          "type": "address"
        },
        {
          "internalType": "int256",
          "name": "_price",
          "type": "int256"
        },
        {
          "internalType": "uint256",
          "name": "_wei",
          "type": "uint256"
        }
      ],
      "name": "withDrawMoney",
      "outputs": [],
      "stateMutability": "nonpayable",
      "type": "function"
    },
    {
      "inputs": [],
      "name": "getContractBalance",
      "outputs": [
        {
          "internalType": "uint256",
          "name": "",
          "type": "uint256"
        }
      ],
      "stateMutability": "view",
      "type": "function",
      "constant": true
    }
  ],
  "bytecode": "0x608060405234801561001057600080fd5b50611b04806100206000396000f3fe6080604052600436106101095760003560e01c806396ec50c311610095578063e1457faf11610064578063e1457faf14610397578063eae97056146103b3578063ee9b66ec146103f0578063f930bce71461042d578063fba133d91461045657610109565b806396ec50c3146102b1578063b81c78ec146102f0578063bd5fec651461031b578063bfa5e00d1461035a57610109565b80633ee992ee116100dc5780633ee992ee146101a05780634423c5f1146101cb57806369043ba31461020a5780636f9fb98a146102475780638a72ea6a1461027257610109565b8063143874781461010e5780631c6c712814610137578063322fba27146101605780633c277ddc14610177575b600080fd5b34801561011a57600080fd5b506101356004803603810190610130919061124a565b61047f565b005b34801561014357600080fd5b5061015e600480360381019061015991906112ad565b6104c7565b005b34801561016c57600080fd5b506101756106b0565b005b34801561018357600080fd5b5061019e60048036038101906101999190611374565b6106bf565b005b3480156101ac57600080fd5b506101b5610812565b6040516101c291906114d6565b60405180910390f35b3480156101d757600080fd5b506101f260048036038101906101ed91906114f8565b6108db565b60405161020193929190611543565b60405180910390f35b34801561021657600080fd5b50610231600480360381019061022c919061124a565b610935565b60405161023e9190611589565b60405180910390f35b34801561025357600080fd5b5061025c61097e565b60405161026991906115a4565b60405180910390f35b34801561027e57600080fd5b50610299600480360381019061029491906114f8565b610986565b6040516102a893929190611543565b60405180910390f35b3480156102bd57600080fd5b506102d860048036038101906102d391906115bf565b6109e0565b6040516102e793929190611543565b60405180910390f35b3480156102fc57600080fd5b50610305610a47565b60405161031291906116f0565b60405180910390f35b34801561032757600080fd5b50610342600480360381019061033d91906115bf565b610b10565b60405161035193929190611543565b60405180910390f35b34801561036657600080fd5b50610381600480360381019061037c919061124a565b610b77565b60405161038e91906114d6565b60405180910390f35b6103b160048036038101906103ac9190611712565b610c7f565b005b3480156103bf57600080fd5b506103da60048036038101906103d5919061124a565b610d49565b6040516103e79190611589565b60405180910390f35b3480156103fc57600080fd5b506104176004803603810190610412919061124a565b610d61565b60405161042491906116f0565b60405180910390f35b34801561043957600080fd5b50610454600480360381019061044f919061173f565b610e69565b005b34801561046257600080fd5b5061047d600480360381019061047891906112ad565b610f8c565b005b6000600460008373ffffffffffffffffffffffffffffffffffffffff1673ffffffffffffffffffffffffffffffffffffffff1681526020019081526020016000208190555050565b600060405180606001604052808573ffffffffffffffffffffffffffffffffffffffff16815260200184815260200183815250908060018154018082558091505060019003906000526020600020906003020160009091909190915060008201518160000160006101000a81548173ffffffffffffffffffffffffffffffffffffffff021916908373ffffffffffffffffffffffffffffffffffffffff16021790555060208201518160010155604082015181600201555050600260008473ffffffffffffffffffffffffffffffffffffffff1673ffffffffffffffffffffffffffffffffffffffff16815260200190815260200160002060405180606001604052808573ffffffffffffffffffffffffffffffffffffffff16815260200184815260200183815250908060018154018082558091505060019003906000526020600020906003020160009091909190915060008201518160000160006101000a81548173ffffffffffffffffffffffffffffffffffffffff021916908373ffffffffffffffffffffffffffffffffffffffff160217905550602082015181600101556040820151816002015550507fab5385bdf2087954d79841430d81dc464fd9ac11bbf521d2d9d83f8ca22f26056040516106a3906117dc565b60405180910390a1505050565b6000806106bd9190611175565b565b804711610701576040517f08c379a00000000000000000000000000000000000000000000000000000000081526004016106f890611848565b60405180910390fd5b81600460003373ffffffffffffffffffffffffffffffffffffffff1673ffffffffffffffffffffffffffffffffffffffff1681526020019081526020016000205461074c9190611897565b600460003373ffffffffffffffffffffffffffffffffffffffff1673ffffffffffffffffffffffffffffffffffffffff168152602001908152602001600020819055508273ffffffffffffffffffffffffffffffffffffffff166108fc829081150290604051600060405180830381858888f193505050501580156107d5573d6000803e3d6000fd5b507fd20d52ebea27de5b53d5282a0ddb2c19b47898d5b49cc66ec75f8f652df70f9d336040516108059190611977565b60405180910390a1505050565b60606000805480602002602001604051908101604052809291908181526020016000905b828210156108d257838290600052602060002090600302016040518060600160405290816000820160009054906101000a900473ffffffffffffffffffffffffffffffffffffffff1673ffffffffffffffffffffffffffffffffffffffff1673ffffffffffffffffffffffffffffffffffffffff1681526020016001820154815260200160028201548152505081526020019060010190610836565b50505050905090565b600181815481106108eb57600080fd5b90600052602060002090600302016000915090508060000160009054906101000a900473ffffffffffffffffffffffffffffffffffffffff16908060010154908060020154905083565b6000600460008373ffffffffffffffffffffffffffffffffffffffff1673ffffffffffffffffffffffffffffffffffffffff168152602001908152602001600020549050919050565b600047905090565b6000818154811061099657600080fd5b90600052602060002090600302016000915090508060000160009054906101000a900473ffffffffffffffffffffffffffffffffffffffff16908060010154908060020154905083565b600360205281600052604060002081815481106109fc57600080fd5b9060005260206000209060030201600091509150508060000160009054906101000a900473ffffffffffffffffffffffffffffffffffffffff16908060010154908060020154905083565b60606001805480602002602001604051908101604052809291908181526020016000905b82821015610b0757838290600052602060002090600302016040518060600160405290816000820160009054906101000a900473ffffffffffffffffffffffffffffffffffffffff1673ffffffffffffffffffffffffffffffffffffffff1673ffffffffffffffffffffffffffffffffffffffff1681526020016001820154815260200160028201548152505081526020019060010190610a6b565b50505050905090565b60026020528160005260406000208181548110610b2c57600080fd5b9060005260206000209060030201600091509150508060000160009054906101000a900473ffffffffffffffffffffffffffffffffffffffff16908060010154908060020154905083565b6060600260008373ffffffffffffffffffffffffffffffffffffffff1673ffffffffffffffffffffffffffffffffffffffff168152602001908152602001600020805480602002602001604051908101604052809291908181526020016000905b82821015610c7457838290600052602060002090600302016040518060600160405290816000820160009054906101000a900473ffffffffffffffffffffffffffffffffffffffff1673ffffffffffffffffffffffffffffffffffffffff1673ffffffffffffffffffffffffffffffffffffffff1681526020016001820154815260200160028201548152505081526020019060010190610bd8565b505050509050919050565b80600460003373ffffffffffffffffffffffffffffffffffffffff1673ffffffffffffffffffffffffffffffffffffffff16815260200190815260200160002054610cca91906119a5565b600460003373ffffffffffffffffffffffffffffffffffffffff1673ffffffffffffffffffffffffffffffffffffffff168152602001908152602001600020819055507ff1b03f708b9c39f453fe3f0cef84164c7d6f7df836df0796e1e9c2bce6ee397e3334604051610d3e929190611a39565b60405180910390a150565b60046020528060005260406000206000915090505481565b6060600360008373ffffffffffffffffffffffffffffffffffffffff1673ffffffffffffffffffffffffffffffffffffffff168152602001908152602001600020805480602002602001604051908101604052809291908181526020016000905b82821015610e5e57838290600052602060002090600302016040518060600160405290816000820160009054906101000a900473ffffffffffffffffffffffffffffffffffffffff1673ffffffffffffffffffffffffffffffffffffffff1673ffffffffffffffffffffffffffffffffffffffff1681526020016001820154815260200160028201548152505081526020019060010190610dc2565b505050509050919050565b6000600460008473ffffffffffffffffffffffffffffffffffffffff1673ffffffffffffffffffffffffffffffffffffffff1681526020019081526020016000205414610f435780600460008473ffffffffffffffffffffffffffffffffffffffff1673ffffffffffffffffffffffffffffffffffffffff16815260200190815260200160002054610efb91906119a5565b600460008473ffffffffffffffffffffffffffffffffffffffff1673ffffffffffffffffffffffffffffffffffffffff16815260200190815260200160002081905550610f88565b80600460008473ffffffffffffffffffffffffffffffffffffffff1673ffffffffffffffffffffffffffffffffffffffff168152602001908152602001600020819055505b5050565b600160405180606001604052808573ffffffffffffffffffffffffffffffffffffffff16815260200184815260200183815250908060018154018082558091505060019003906000526020600020906003020160009091909190915060008201518160000160006101000a81548173ffffffffffffffffffffffffffffffffffffffff021916908373ffffffffffffffffffffffffffffffffffffffff16021790555060208201518160010155604082015181600201555050600360008473ffffffffffffffffffffffffffffffffffffffff1673ffffffffffffffffffffffffffffffffffffffff16815260200190815260200160002060405180606001604052808573ffffffffffffffffffffffffffffffffffffffff16815260200184815260200183815250908060018154018082558091505060019003906000526020600020906003020160009091909190915060008201518160000160006101000a81548173ffffffffffffffffffffffffffffffffffffffff021916908373ffffffffffffffffffffffffffffffffffffffff160217905550602082015181600101556040820151816002015550507fcc7badc6f30b4a8ffc7e82154af1dd338ed51ba086fb172b940e62155f7cce6a60405161116890611aae565b60405180910390a1505050565b50805460008255600302906000526020600020908101906111969190611199565b50565b5b808211156111e357600080820160006101000a81549073ffffffffffffffffffffffffffffffffffffffff0219169055600182016000905560028201600090555060030161119a565b5090565b600080fd5b600073ffffffffffffffffffffffffffffffffffffffff82169050919050565b6000611217826111ec565b9050919050565b6112278161120c565b811461123257600080fd5b50565b6000813590506112448161121e565b92915050565b6000602082840312156112605761125f6111e7565b5b600061126e84828501611235565b91505092915050565b6000819050919050565b61128a81611277565b811461129557600080fd5b50565b6000813590506112a781611281565b92915050565b6000806000606084860312156112c6576112c56111e7565b5b60006112d486828701611235565b93505060206112e586828701611298565b92505060406112f686828701611298565b9150509250925092565b600061130b826111ec565b9050919050565b61131b81611300565b811461132657600080fd5b50565b60008135905061133881611312565b92915050565b6000819050919050565b6113518161133e565b811461135c57600080fd5b50565b60008135905061136e81611348565b92915050565b60008060006060848603121561138d5761138c6111e7565b5b600061139b86828701611329565b93505060206113ac8682870161135f565b92505060406113bd86828701611298565b9150509250925092565b600081519050919050565b600082825260208201905092915050565b6000819050602082019050919050565b6113fc8161120c565b82525050565b61140b81611277565b82525050565b60608201600082015161142760008501826113f3565b50602082015161143a6020850182611402565b50604082015161144d6040850182611402565b50505050565b600061145f8383611411565b60608301905092915050565b6000602082019050919050565b6000611483826113c7565b61148d81856113d2565b9350611498836113e3565b8060005b838110156114c95781516114b08882611453565b97506114bb8361146b565b92505060018101905061149c565b5085935050505092915050565b600060208201905081810360008301526114f08184611478565b905092915050565b60006020828403121561150e5761150d6111e7565b5b600061151c84828501611298565b91505092915050565b61152e8161120c565b82525050565b61153d81611277565b82525050565b60006060820190506115586000830186611525565b6115656020830185611534565b6115726040830184611534565b949350505050565b6115838161133e565b82525050565b600060208201905061159e600083018461157a565b92915050565b60006020820190506115b96000830184611534565b92915050565b600080604083850312156115d6576115d56111e7565b5b60006115e485828601611235565b92505060206115f585828601611298565b9150509250929050565b600081519050919050565b600082825260208201905092915050565b6000819050602082019050919050565b60608201600082015161164160008501826113f3565b5060208201516116546020850182611402565b5060408201516116676040850182611402565b50505050565b6000611679838361162b565b60608301905092915050565b6000602082019050919050565b600061169d826115ff565b6116a7818561160a565b93506116b28361161b565b8060005b838110156116e35781516116ca888261166d565b97506116d583611685565b9250506001810190506116b6565b5085935050505092915050565b6000602082019050818103600083015261170a8184611692565b905092915050565b600060208284031215611728576117276111e7565b5b60006117368482850161135f565b91505092915050565b60008060408385031215611756576117556111e7565b5b600061176485828601611235565b92505060206117758582860161135f565b9150509250929050565b600082825260208201905092915050565b7f4f6666657220637265617465642073756363657366756c6c7900000000000000600082015250565b60006117c660198361177f565b91506117d182611790565b602082019050919050565b600060208201905081810360008301526117f5816117b9565b9050919050565b7f4d6f6e6579206e6f7420617661696c61626c6500000000000000000000000000600082015250565b600061183260138361177f565b915061183d826117fc565b602082019050919050565b6000602082019050818103600083015261186181611825565b9050919050565b7f4e487b7100000000000000000000000000000000000000000000000000000000600052601160045260246000fd5b60006118a28261133e565b91506118ad8361133e565b9250827f8000000000000000000000000000000000000000000000000000000000000000018212600084121516156118e8576118e7611868565b5b827f7fffffffffffffffffffffffffffffffffffffffffffffffffffffffffffffff0182136000841216156119205761191f611868565b5b828203905092915050565b7f6d6f6e65797320686173206265656e2072656365697665640000000000000000600082015250565b600061196160188361177f565b915061196c8261192b565b602082019050919050565b600060408201905061198c6000830184611525565b818103602083015261199d81611954565b905092915050565b60006119b08261133e565b91506119bb8361133e565b9250817f7fffffffffffffffffffffffffffffffffffffffffffffffffffffffffffffff038313600083121516156119f6576119f5611868565b5b817f8000000000000000000000000000000000000000000000000000000000000000038312600083121615611a2e57611a2d611868565b5b828201905092915050565b6000604082019050611a4e6000830185611525565b611a5b6020830184611534565b9392505050565b7f4269642063726561746564000000000000000000000000000000000000000000600082015250565b6000611a98600b8361177f565b9150611aa382611a62565b602082019050919050565b60006020820190508181036000830152611ac781611a8b565b905091905056fea26469706673582212202789722326b19f0f6d303ae261a05c8cb82c5f7c2ac74e3cb8ffdf406fdb79e364736f6c634300080b0033",
  "immutableReferences": {},
  "source": "// SPDX-License-Identifier: MIT\r\n\r\npragma solidity ^0.8.11;\r\n\r\ncontract MarketMicroGridContract {\r\n    struct Offer {\r\n        address user;\r\n        /**\r\n           minumum price which user is willing to sell\r\n         */\r\n        uint256 minPrice;\r\n        uint creationDate;\r\n    }\r\n\r\n    struct Bid {\r\n        address user;\r\n        uint256 maxPrice;\r\n        uint creationDate;\r\n    }\r\n\r\n    Offer[] public offers;\r\n    Bid[] public bids;\r\n\r\n    mapping(address => Offer[]) public userOffers;\r\n    mapping(address => Bid[]) public userBids;\r\n\r\n    mapping(address => int) public userPayment;\r\n\r\n    /**Events */\r\n    event OfferCreated(string message);\r\n    event BidCreated(string message);\r\n    event TransferReceived(address sender, uint256 value);\r\n    event MoneyReceived(address sender, string message);\r\n\r\n    /**Functions */\r\n    function createOffer(\r\n        address _address,\r\n        uint256 _maxPrice,\r\n        uint _creationDate\r\n    ) external {\r\n        offers.push(Offer(_address, _maxPrice, _creationDate));\r\n        userOffers[_address].push(Offer(_address, _maxPrice, _creationDate));\r\n        emit OfferCreated(\"Offer created succesfully\");\r\n    }\r\n\r\n    function deleteAllOffers() external {\r\n        delete offers;\r\n    }\r\n\r\n    function createBid(\r\n        address _address,\r\n        uint256 _minPrice,\r\n        uint _creationDate\r\n    ) external {\r\n        bids.push(Bid(_address, _minPrice, _creationDate));\r\n        userBids[_address].push(Bid(_address, _minPrice, _creationDate));\r\n        emit BidCreated(\"Bid created\");\r\n    }\r\n\r\n    function getOffers() public view returns (Offer[] memory) {\r\n        return offers;\r\n    }\r\n\r\n    function getOffersByAddress(\r\n        address _address\r\n    ) public view returns (Offer[] memory) {\r\n        return userOffers[_address];\r\n    }\r\n\r\n    function getBidsByAddress(\r\n        address _address\r\n    ) public view returns (Bid[] memory) {\r\n        return userBids[_address];\r\n    }\r\n\r\n    function getBids() public view returns (Bid[] memory) {\r\n        return bids;\r\n    }\r\n\r\n    // --- Payment ----\r\n\r\n    function createPaymentTransaction(address _address, int _price) external {\r\n        if (userPayment[_address] != 0) {\r\n            userPayment[_address] = userPayment[_address] + _price;\r\n        } else {\r\n            userPayment[_address] = _price;\r\n        }\r\n    }\r\n\r\n    /**\r\n        This method is just to faciliate development\r\n    */\r\n    function resetPayment(address _address) external {\r\n        userPayment[_address] = 0;\r\n    }\r\n\r\n    function getPaymentTransaction(address _address) public view returns (int) {\r\n        return userPayment[_address];\r\n    }\r\n\r\n    function pay(int price) external payable {\r\n        userPayment[msg.sender] = userPayment[msg.sender] + price;\r\n        emit TransferReceived(msg.sender, msg.value);\r\n    }\r\n\r\n    function withDrawMoney(\r\n        address payable _address,\r\n        int _price,\r\n        uint _wei\r\n    ) public {\r\n        require(address(this).balance > _wei, \"Money not available\");\r\n\r\n        userPayment[msg.sender] = userPayment[msg.sender] - _price;\r\n        _address.transfer(_wei);\r\n        emit MoneyReceived(msg.sender, \"moneys has been received\");\r\n    }\r\n\r\n    function getContractBalance() public view returns (uint) {\r\n        return address(this).balance;\r\n    }\r\n}\r\n",
  "sourcePath": "C:\\Users\\salva\\OneDrive\\Desktop\\progetto-tesi\\EW-did-management\\blockchain\\contracts\\MarketMicroGrid.sol",
  "compiler": {
    "name": "solc",
    "version": "0.8.11+commit.d7f03943.Emscripten.clang"
  },
  "schemaVersion": "3.4.13",
  "updatedAt": "2023-04-30T13:17:07.527Z",
  "networkType": "ethereum",
  "devdoc": {
    "kind": "dev",
    "methods": {},
    "version": 1
  },
  "userdoc": {
    "events": {
      "OfferCreated(string)": {
        "notice": "Events "
      }
    },
    "kind": "user",
    "methods": {
      "createOffer(address,uint256,uint256)": {
        "notice": "Functions "
      },
      "resetPayment(address)": {
        "notice": "This method is just to faciliate development"
      }
    },
    "version": 1
  }
}