{
  "contractName": "MarketMicroGridContract",
  "abi": [
    {
      "anonymous": false,
      "inputs": [
        {
          "indexed": false,
          "internalType": "string",
          "name": "message",
          "type": "string"
        }
      ],
      "name": "BidCreated",
      "type": "event"
    },
    {
      "anonymous": false,
      "inputs": [
        {
          "indexed": false,
          "internalType": "address",
          "name": "sender",
          "type": "address"
        },
        {
          "indexed": false,
          "internalType": "string",
          "name": "message",
          "type": "string"
        }
      ],
      "name": "MoneyReceived",
      "type": "event"
    },
    {
      "anonymous": false,
      "inputs": [
        {
          "indexed": false,
          "internalType": "string",
          "name": "message",
          "type": "string"
        }
      ],
      "name": "OfferCreated",
      "type": "event"
    },
    {
      "anonymous": false,
      "inputs": [
        {
          "indexed": false,
          "internalType": "address",
          "name": "sender",
          "type": "address"
        },
        {
          "indexed": false,
          "internalType": "uint256",
          "name": "value",
          "type": "uint256"
        }
      ],
      "name": "TransferReceived",
      "type": "event"
    },
    {
      "inputs": [
        {
          "internalType": "uint256",
          "name": "",
          "type": "uint256"
        }
      ],
      "name": "bids",
      "outputs": [
        {
          "internalType": "address",
          "name": "user",
          "type": "address"
        },
        {
          "internalType": "uint256",
          "name": "maxPrice",
          "type": "uint256"
        },
        {
          "internalType": "uint256",
          "name": "creationDate",
          "type": "uint256"
        }
      ],
      "stateMutability": "view",
      "type": "function",
      "constant": true
    },
    {
      "inputs": [
        {
          "internalType": "uint256",
          "name": "",
          "type": "uint256"
        }
      ],
      "name": "offers",
      "outputs": [
        {
          "internalType": "address",
          "name": "user",
          "type": "address"
        },
        {
          "internalType": "uint256",
          "name": "minPrice",
          "type": "uint256"
        },
        {
          "internalType": "uint256",
          "name": "creationDate",
          "type": "uint256"
        }
      ],
      "stateMutability": "view",
      "type": "function",
      "constant": true
    },
    {
      "inputs": [
        {
          "internalType": "address",
          "name": "",
          "type": "address"
        },
        {
          "internalType": "uint256",
          "name": "",
          "type": "uint256"
        }
      ],
      "name": "userBids",
      "outputs": [
        {
          "internalType": "address",
          "name": "user",
          "type": "address"
        },
        {
          "internalType": "uint256",
          "name": "maxPrice",
          "type": "uint256"
        },
        {
          "internalType": "uint256",
          "name": "creationDate",
          "type": "uint256"
        }
      ],
      "stateMutability": "view",
      "type": "function",
      "constant": true
    },
    {
      "inputs": [
        {
          "internalType": "address",
          "name": "",
          "type": "address"
        },
        {
          "internalType": "uint256",
          "name": "",
          "type": "uint256"
        }
      ],
      "name": "userOffers",
      "outputs": [
        {
          "internalType": "address",
          "name": "user",
          "type": "address"
        },
        {
          "internalType": "uint256",
          "name": "minPrice",
          "type": "uint256"
        },
        {
          "internalType": "uint256",
          "name": "creationDate",
          "type": "uint256"
        }
      ],
      "stateMutability": "view",
      "type": "function",
      "constant": true
    },
    {
      "inputs": [
        {
          "internalType": "address",
          "name": "",
          "type": "address"
        }
      ],
      "name": "userPayment",
      "outputs": [
        {
          "internalType": "int256",
          "name": "",
          "type": "int256"
        }
      ],
      "stateMutability": "view",
      "type": "function",
      "constant": true
    },
    {
      "inputs": [
        {
          "internalType": "address",
          "name": "_address",
          "type": "address"
        },
        {
          "internalType": "uint256",
          "name": "_maxPrice",
          "type": "uint256"
        },
        {
          "internalType": "uint256",
          "name": "_creationDate",
          "type": "uint256"
        }
      ],
      "name": "createOffer",
      "outputs": [],
      "stateMutability": "nonpayable",
      "type": "function"
    },
    {
      "inputs": [],
      "name": "deleteAllOffers",
      "outputs": [],
      "stateMutability": "nonpayable",
      "type": "function"
    },
    {
      "inputs": [
        {
          "internalType": "address",
          "name": "_address",
          "type": "address"
        },
        {
          "internalType": "uint256",
          "name": "_minPrice",
          "type": "uint256"
        },
        {
          "internalType": "uint256",
          "name": "_creationDate",
          "type": "uint256"
        }
      ],
      "name": "createBid",
      "outputs": [],
      "stateMutability": "nonpayable",
      "type": "function"
    },
    {
      "inputs": [],
      "name": "getOffers",
      "outputs": [
        {
          "components": [
            {
              "internalType": "address",
              "name": "user",
              "type": "address"
            },
            {
              "internalType": "uint256",
              "name": "minPrice",
              "type": "uint256"
            },
            {
              "internalType": "uint256",
              "name": "creationDate",
              "type": "uint256"
            }
          ],
          "internalType": "struct MarketMicroGridContract.Offer[]",
          "name": "",
          "type": "tuple[]"
        }
      ],
      "stateMutability": "view",
      "type": "function",
      "constant": true
    },
    {
      "inputs": [
        {
          "internalType": "address",
          "name": "_address",
          "type": "address"
        }
      ],
      "name": "getOffersByAddress",
      "outputs": [
        {
          "components": [
            {
              "internalType": "address",
              "name": "user",
              "type": "address"
            },
            {
              "internalType": "uint256",
              "name": "minPrice",
              "type": "uint256"
            },
            {
              "internalType": "uint256",
              "name": "creationDate",
              "type": "uint256"
            }
          ],
          "internalType": "struct MarketMicroGridContract.Offer[]",
          "name": "",
          "type": "tuple[]"
        }
      ],
      "stateMutability": "view",
      "type": "function",
      "constant": true
    },
    {
      "inputs": [
        {
          "internalType": "address",
          "name": "_address",
          "type": "address"
        }
      ],
      "name": "getBidsByAddress",
      "outputs": [
        {
          "components": [
            {
              "internalType": "address",
              "name": "user",
              "type": "address"
            },
            {
              "internalType": "uint256",
              "name": "maxPrice",
              "type": "uint256"
            },
            {
              "internalType": "uint256",
              "name": "creationDate",
              "type": "uint256"
            }
          ],
          "internalType": "struct MarketMicroGridContract.Bid[]",
          "name": "",
          "type": "tuple[]"
        }
      ],
      "stateMutability": "view",
      "type": "function",
      "constant": true
    },
    {
      "inputs": [],
      "name": "getBids",
      "outputs": [
        {
          "components": [
            {
              "internalType": "address",
              "name": "user",
              "type": "address"
            },
            {
              "internalType": "uint256",
              "name": "maxPrice",
              "type": "uint256"
            },
            {
              "internalType": "uint256",
              "name": "creationDate",
              "type": "uint256"
            }
          ],
          "internalType": "struct MarketMicroGridContract.Bid[]",
          "name": "",
          "type": "tuple[]"
        }
      ],
      "stateMutability": "view",
      "type": "function",
      "constant": true
    },
    {
      "inputs": [
        {
          "internalType": "address",
          "name": "_address",
          "type": "address"
        },
        {
          "internalType": "int256",
          "name": "_price",
          "type": "int256"
        }
      ],
      "name": "createPaymentTransaction",
      "outputs": [],
      "stateMutability": "nonpayable",
      "type": "function"
    },
    {
      "inputs": [
        {
          "internalType": "address",
          "name": "_address",
          "type": "address"
        }
      ],
      "name": "getPaymentTransaction",
      "outputs": [
        {
          "internalType": "int256",
          "name": "",
          "type": "int256"
        }
      ],
      "stateMutability": "view",
      "type": "function",
      "constant": true
    },
    {
      "inputs": [],
      "name": "pay",
      "outputs": [],
      "stateMutability": "payable",
      "type": "function",
      "payable": true
    },
    {
      "inputs": [
        {
          "internalType": "address payable",
          "name": "_address",
          "type": "address"
        },
        {
          "internalType": "uint256",
          "name": "_price",
          "type": "uint256"
        }
      ],
      "name": "withDrawMoney",
      "outputs": [],
      "stateMutability": "nonpayable",
      "type": "function"
    },
    {
      "inputs": [],
      "name": "getContractBalance",
      "outputs": [
        {
          "internalType": "uint256",
          "name": "",
          "type": "uint256"
        }
      ],
      "stateMutability": "view",
      "type": "function",
      "constant": true
    }
  ],
  "bytecode": "0x608060405234801561001057600080fd5b506119a6806100206000396000f3fe6080604052600436106100fe5760003560e01c806396ec50c311610095578063bfa5e00d11610064578063bfa5e00d14610330578063eae970561461036d578063ee9b66ec146103aa578063f930bce7146103e7578063fba133d914610410576100fe565b806396ec50c31461025e578063b39d7b7c1461029d578063b81c78ec146102c6578063bd5fec65146102f1576100fe565b80634423c5f1116100d15780634423c5f11461017857806369043ba3146101b75780636f9fb98a146101f45780638a72ea6a1461021f576100fe565b80631b9265b8146101035780631c6c71281461010d578063322fba27146101365780633ee992ee1461014d575b600080fd5b61010b610439565b005b34801561011957600080fd5b50610134600480360381019061012f9190611162565b610502565b005b34801561014257600080fd5b5061014b6106eb565b005b34801561015957600080fd5b506101626106fa565b60405161016f91906112c4565b60405180910390f35b34801561018457600080fd5b5061019f600480360381019061019a91906112e6565b6107c3565b6040516101ae93929190611331565b60405180910390f35b3480156101c357600080fd5b506101de60048036038101906101d99190611368565b61081d565b6040516101eb91906113ae565b60405180910390f35b34801561020057600080fd5b50610209610866565b60405161021691906113c9565b60405180910390f35b34801561022b57600080fd5b50610246600480360381019061024191906112e6565b61086e565b60405161025593929190611331565b60405180910390f35b34801561026a57600080fd5b50610285600480360381019061028091906113e4565b6108c8565b60405161029493929190611331565b60405180910390f35b3480156102a957600080fd5b506102c460048036038101906102bf9190611462565b61092f565b005b3480156102d257600080fd5b506102db6109f3565b6040516102e89190611593565b60405180910390f35b3480156102fd57600080fd5b50610318600480360381019061031391906113e4565b610abc565b60405161032793929190611331565b60405180910390f35b34801561033c57600080fd5b5061035760048036038101906103529190611368565b610b23565b60405161036491906112c4565b60405180910390f35b34801561037957600080fd5b50610394600480360381019061038f9190611368565b610c2b565b6040516103a191906113ae565b60405180910390f35b3480156103b657600080fd5b506103d160048036038101906103cc9190611368565b610c43565b6040516103de9190611593565b60405180910390f35b3480156103f357600080fd5b5061040e600480360381019061040991906115e1565b610d4b565b005b34801561041c57600080fd5b5061043760048036038101906104329190611162565b610e6e565b005b34600460003373ffffffffffffffffffffffffffffffffffffffff1673ffffffffffffffffffffffffffffffffffffffff168152602001908152602001600020546104849190611650565b600460003373ffffffffffffffffffffffffffffffffffffffff1673ffffffffffffffffffffffffffffffffffffffff168152602001908152602001600020819055507ff1b03f708b9c39f453fe3f0cef84164c7d6f7df836df0796e1e9c2bce6ee397e33346040516104f89291906116e4565b60405180910390a1565b600060405180606001604052808573ffffffffffffffffffffffffffffffffffffffff16815260200184815260200183815250908060018154018082558091505060019003906000526020600020906003020160009091909190915060008201518160000160006101000a81548173ffffffffffffffffffffffffffffffffffffffff021916908373ffffffffffffffffffffffffffffffffffffffff16021790555060208201518160010155604082015181600201555050600260008473ffffffffffffffffffffffffffffffffffffffff1673ffffffffffffffffffffffffffffffffffffffff16815260200190815260200160002060405180606001604052808573ffffffffffffffffffffffffffffffffffffffff16815260200184815260200183815250908060018154018082558091505060019003906000526020600020906003020160009091909190915060008201518160000160006101000a81548173ffffffffffffffffffffffffffffffffffffffff021916908373ffffffffffffffffffffffffffffffffffffffff160217905550602082015181600101556040820151816002015550507fab5385bdf2087954d79841430d81dc464fd9ac11bbf521d2d9d83f8ca22f26056040516106de9061176a565b60405180910390a1505050565b6000806106f89190611057565b565b60606000805480602002602001604051908101604052809291908181526020016000905b828210156107ba57838290600052602060002090600302016040518060600160405290816000820160009054906101000a900473ffffffffffffffffffffffffffffffffffffffff1673ffffffffffffffffffffffffffffffffffffffff1673ffffffffffffffffffffffffffffffffffffffff168152602001600182015481526020016002820154815250508152602001906001019061071e565b50505050905090565b600181815481106107d357600080fd5b90600052602060002090600302016000915090508060000160009054906101000a900473ffffffffffffffffffffffffffffffffffffffff16908060010154908060020154905083565b6000600460008373ffffffffffffffffffffffffffffffffffffffff1673ffffffffffffffffffffffffffffffffffffffff168152602001908152602001600020549050919050565b600047905090565b6000818154811061087e57600080fd5b90600052602060002090600302016000915090508060000160009054906101000a900473ffffffffffffffffffffffffffffffffffffffff16908060010154908060020154905083565b600360205281600052604060002081815481106108e457600080fd5b9060005260206000209060030201600091509150508060000160009054906101000a900473ffffffffffffffffffffffffffffffffffffffff16908060010154908060020154905083565b804711610971576040517f08c379a0000000000000000000000000000000000000000000000000000000008152600401610968906117d6565b60405180910390fd5b8173ffffffffffffffffffffffffffffffffffffffff166108fc479081150290604051600060405180830381858888f193505050501580156109b7573d6000803e3d6000fd5b507fd20d52ebea27de5b53d5282a0ddb2c19b47898d5b49cc66ec75f8f652df70f9d336040516109e79190611842565b60405180910390a15050565b60606001805480602002602001604051908101604052809291908181526020016000905b82821015610ab357838290600052602060002090600302016040518060600160405290816000820160009054906101000a900473ffffffffffffffffffffffffffffffffffffffff1673ffffffffffffffffffffffffffffffffffffffff1673ffffffffffffffffffffffffffffffffffffffff1681526020016001820154815260200160028201548152505081526020019060010190610a17565b50505050905090565b60026020528160005260406000208181548110610ad857600080fd5b9060005260206000209060030201600091509150508060000160009054906101000a900473ffffffffffffffffffffffffffffffffffffffff16908060010154908060020154905083565b6060600260008373ffffffffffffffffffffffffffffffffffffffff1673ffffffffffffffffffffffffffffffffffffffff168152602001908152602001600020805480602002602001604051908101604052809291908181526020016000905b82821015610c2057838290600052602060002090600302016040518060600160405290816000820160009054906101000a900473ffffffffffffffffffffffffffffffffffffffff1673ffffffffffffffffffffffffffffffffffffffff1673ffffffffffffffffffffffffffffffffffffffff1681526020016001820154815260200160028201548152505081526020019060010190610b84565b505050509050919050565b60046020528060005260406000206000915090505481565b6060600360008373ffffffffffffffffffffffffffffffffffffffff1673ffffffffffffffffffffffffffffffffffffffff168152602001908152602001600020805480602002602001604051908101604052809291908181526020016000905b82821015610d4057838290600052602060002090600302016040518060600160405290816000820160009054906101000a900473ffffffffffffffffffffffffffffffffffffffff1673ffffffffffffffffffffffffffffffffffffffff1673ffffffffffffffffffffffffffffffffffffffff1681526020016001820154815260200160028201548152505081526020019060010190610ca4565b505050509050919050565b6000600460008473ffffffffffffffffffffffffffffffffffffffff1673ffffffffffffffffffffffffffffffffffffffff1681526020019081526020016000205414610e255780600460008473ffffffffffffffffffffffffffffffffffffffff1673ffffffffffffffffffffffffffffffffffffffff16815260200190815260200160002054610ddd9190611870565b600460008473ffffffffffffffffffffffffffffffffffffffff1673ffffffffffffffffffffffffffffffffffffffff16815260200190815260200160002081905550610e6a565b80600460008473ffffffffffffffffffffffffffffffffffffffff1673ffffffffffffffffffffffffffffffffffffffff168152602001908152602001600020819055505b5050565b600160405180606001604052808573ffffffffffffffffffffffffffffffffffffffff16815260200184815260200183815250908060018154018082558091505060019003906000526020600020906003020160009091909190915060008201518160000160006101000a81548173ffffffffffffffffffffffffffffffffffffffff021916908373ffffffffffffffffffffffffffffffffffffffff16021790555060208201518160010155604082015181600201555050600360008473ffffffffffffffffffffffffffffffffffffffff1673ffffffffffffffffffffffffffffffffffffffff16815260200190815260200160002060405180606001604052808573ffffffffffffffffffffffffffffffffffffffff16815260200184815260200183815250908060018154018082558091505060019003906000526020600020906003020160009091909190915060008201518160000160006101000a81548173ffffffffffffffffffffffffffffffffffffffff021916908373ffffffffffffffffffffffffffffffffffffffff160217905550602082015181600101556040820151816002015550507fcc7badc6f30b4a8ffc7e82154af1dd338ed51ba086fb172b940e62155f7cce6a60405161104a90611950565b60405180910390a1505050565b5080546000825560030290600052602060002090810190611078919061107b565b50565b5b808211156110c557600080820160006101000a81549073ffffffffffffffffffffffffffffffffffffffff0219169055600182016000905560028201600090555060030161107c565b5090565b600080fd5b600073ffffffffffffffffffffffffffffffffffffffff82169050919050565b60006110f9826110ce565b9050919050565b611109816110ee565b811461111457600080fd5b50565b60008135905061112681611100565b92915050565b6000819050919050565b61113f8161112c565b811461114a57600080fd5b50565b60008135905061115c81611136565b92915050565b60008060006060848603121561117b5761117a6110c9565b5b600061118986828701611117565b935050602061119a8682870161114d565b92505060406111ab8682870161114d565b9150509250925092565b600081519050919050565b600082825260208201905092915050565b6000819050602082019050919050565b6111ea816110ee565b82525050565b6111f98161112c565b82525050565b60608201600082015161121560008501826111e1565b50602082015161122860208501826111f0565b50604082015161123b60408501826111f0565b50505050565b600061124d83836111ff565b60608301905092915050565b6000602082019050919050565b6000611271826111b5565b61127b81856111c0565b9350611286836111d1565b8060005b838110156112b757815161129e8882611241565b97506112a983611259565b92505060018101905061128a565b5085935050505092915050565b600060208201905081810360008301526112de8184611266565b905092915050565b6000602082840312156112fc576112fb6110c9565b5b600061130a8482850161114d565b91505092915050565b61131c816110ee565b82525050565b61132b8161112c565b82525050565b60006060820190506113466000830186611313565b6113536020830185611322565b6113606040830184611322565b949350505050565b60006020828403121561137e5761137d6110c9565b5b600061138c84828501611117565b91505092915050565b6000819050919050565b6113a881611395565b82525050565b60006020820190506113c3600083018461139f565b92915050565b60006020820190506113de6000830184611322565b92915050565b600080604083850312156113fb576113fa6110c9565b5b600061140985828601611117565b925050602061141a8582860161114d565b9150509250929050565b600061142f826110ce565b9050919050565b61143f81611424565b811461144a57600080fd5b50565b60008135905061145c81611436565b92915050565b60008060408385031215611479576114786110c9565b5b60006114878582860161144d565b92505060206114988582860161114d565b9150509250929050565b600081519050919050565b600082825260208201905092915050565b6000819050602082019050919050565b6060820160008201516114e460008501826111e1565b5060208201516114f760208501826111f0565b50604082015161150a60408501826111f0565b50505050565b600061151c83836114ce565b60608301905092915050565b6000602082019050919050565b6000611540826114a2565b61154a81856114ad565b9350611555836114be565b8060005b8381101561158657815161156d8882611510565b975061157883611528565b925050600181019050611559565b5085935050505092915050565b600060208201905081810360008301526115ad8184611535565b905092915050565b6115be81611395565b81146115c957600080fd5b50565b6000813590506115db816115b5565b92915050565b600080604083850312156115f8576115f76110c9565b5b600061160685828601611117565b9250506020611617858286016115cc565b9150509250929050565b7f4e487b7100000000000000000000000000000000000000000000000000000000600052601160045260246000fd5b600061165b82611395565b915061166683611395565b9250827f8000000000000000000000000000000000000000000000000000000000000000018212600084121516156116a1576116a0611621565b5b827f7fffffffffffffffffffffffffffffffffffffffffffffffffffffffffffffff0182136000841216156116d9576116d8611621565b5b828203905092915050565b60006040820190506116f96000830185611313565b6117066020830184611322565b9392505050565b600082825260208201905092915050565b7f4f6666657220637265617465642073756363657366756c6c7900000000000000600082015250565b600061175460198361170d565b915061175f8261171e565b602082019050919050565b6000602082019050818103600083015261178381611747565b9050919050565b7f4d6f6e6579206e6f7420617661696c61626c6500000000000000000000000000600082015250565b60006117c060138361170d565b91506117cb8261178a565b602082019050919050565b600060208201905081810360008301526117ef816117b3565b9050919050565b7f6d6f6e657920686173206265656e207265636569766564000000000000000000600082015250565b600061182c60178361170d565b9150611837826117f6565b602082019050919050565b60006040820190506118576000830184611313565b81810360208301526118688161181f565b905092915050565b600061187b82611395565b915061188683611395565b9250817f7fffffffffffffffffffffffffffffffffffffffffffffffffffffffffffffff038313600083121516156118c1576118c0611621565b5b817f80000000000000000000000000000000000000000000000000000000000000000383126000831216156118f9576118f8611621565b5b828201905092915050565b7f4269642063726561746564000000000000000000000000000000000000000000600082015250565b600061193a600b8361170d565b915061194582611904565b602082019050919050565b600060208201905081810360008301526119698161192d565b905091905056fea264697066735822122024481fbf559c74ba670bfb7cba3273826801b944d20c153620058d06d13b5f3364736f6c634300080b0033",
  "immutableReferences": {},
  "source": "// SPDX-License-Identifier: MIT\r\n\r\npragma solidity ^0.8.11;\r\n\r\ncontract MarketMicroGridContract {\r\n    struct Offer {\r\n        address user;\r\n        /**\r\n           minumum price which user is willing to sell\r\n         */\r\n        uint256 minPrice;\r\n        uint creationDate;\r\n    }\r\n\r\n    struct Bid {\r\n        address user;\r\n        uint256 maxPrice;\r\n        uint creationDate;\r\n    }\r\n\r\n    Offer[] public offers;\r\n    Bid[] public bids;\r\n\r\n    mapping(address => Offer[]) public userOffers;\r\n    mapping(address => Bid[]) public userBids;\r\n\r\n    mapping(address => int) public userPayment;\r\n\r\n    /**Events */\r\n    event OfferCreated(string message);\r\n    event BidCreated(string message);\r\n    event TransferReceived(address sender, uint256 value);\r\n    event MoneyReceived(address sender, string message);\r\n\r\n    /**Functions */\r\n    function createOffer(\r\n        address _address,\r\n        uint256 _maxPrice,\r\n        uint _creationDate\r\n    ) external {\r\n        offers.push(Offer(_address, _maxPrice, _creationDate));\r\n        userOffers[_address].push(Offer(_address, _maxPrice, _creationDate));\r\n        emit OfferCreated(\"Offer created succesfully\");\r\n    }\r\n\r\n    function deleteAllOffers() external {\r\n        delete offers;\r\n    }\r\n\r\n    function createBid(\r\n        address _address,\r\n        uint256 _minPrice,\r\n        uint _creationDate\r\n    ) external {\r\n        bids.push(Bid(_address, _minPrice, _creationDate));\r\n        userBids[_address].push(Bid(_address, _minPrice, _creationDate));\r\n        emit BidCreated(\"Bid created\");\r\n    }\r\n\r\n    function getOffers() public view returns (Offer[] memory) {\r\n        return offers;\r\n    }\r\n\r\n    function getOffersByAddress(\r\n        address _address\r\n    ) public view returns (Offer[] memory) {\r\n        return userOffers[_address];\r\n    }\r\n\r\n    function getBidsByAddress(\r\n        address _address\r\n    ) public view returns (Bid[] memory) {\r\n        return userBids[_address];\r\n    }\r\n\r\n    function getBids() public view returns (Bid[] memory) {\r\n        return bids;\r\n    }\r\n\r\n    // --- Payment ----\r\n\r\n    function createPaymentTransaction(address _address, int _price) external {\r\n        if (userPayment[_address] != 0) {\r\n            userPayment[_address] = userPayment[_address] + _price;\r\n        } else {\r\n            userPayment[_address] = _price;\r\n        }\r\n    }\r\n\r\n    function getPaymentTransaction(address _address) public view returns (int) {\r\n        return userPayment[_address];\r\n    }\r\n\r\n    function pay() external payable {\r\n        userPayment[msg.sender] = userPayment[msg.sender] - int(msg.value);\r\n        emit TransferReceived(msg.sender, msg.value);\r\n    }\r\n\r\n    function withDrawMoney(address payable _address, uint _price) public {\r\n        require(address(this).balance > _price, \"Money not available\");\r\n        _address.transfer(address(this).balance);\r\n        emit MoneyReceived(msg.sender, \"money has been received\");\r\n    }\r\n\r\n    function getContractBalance() public view returns (uint) {\r\n        return address(this).balance;\r\n    }\r\n}\r\n",
  "sourcePath": "C:\\Users\\salva\\OneDrive\\Desktop\\progetto-tesi\\EW-did-management\\blockchain\\contracts\\MarketMicroGrid.sol",
  "compiler": {
    "name": "solc",
    "version": "0.8.11+commit.d7f03943.Emscripten.clang"
  },
  "schemaVersion": "3.4.13",
  "updatedAt": "2023-04-29T14:33:57.521Z",
  "networkType": "ethereum",
  "devdoc": {
    "kind": "dev",
    "methods": {},
    "version": 1
  },
  "userdoc": {
    "events": {
      "OfferCreated(string)": {
        "notice": "Events "
      }
    },
    "kind": "user",
    "methods": {
      "createOffer(address,uint256,uint256)": {
        "notice": "Functions "
      }
    },
    "version": 1
  }
}