{
  "contractName": "MarketMicroGridContract",
  "abi": [
    {
      "anonymous": false,
      "inputs": [
        {
          "indexed": false,
          "internalType": "string",
          "name": "message",
          "type": "string"
        }
      ],
      "name": "BidCreated",
      "type": "event"
    },
    {
      "anonymous": false,
      "inputs": [
        {
          "indexed": false,
          "internalType": "string",
          "name": "message",
          "type": "string"
        }
      ],
      "name": "OfferCreated",
      "type": "event"
    },
    {
      "inputs": [
        {
          "internalType": "uint256",
          "name": "",
          "type": "uint256"
        }
      ],
      "name": "bids",
      "outputs": [
        {
          "internalType": "address",
          "name": "user",
          "type": "address"
        },
        {
          "internalType": "uint256",
          "name": "maxPrice",
          "type": "uint256"
        },
        {
          "internalType": "uint256",
          "name": "creationDate",
          "type": "uint256"
        }
      ],
      "stateMutability": "view",
      "type": "function",
      "constant": true
    },
    {
      "inputs": [],
      "name": "matchTest",
      "outputs": [
        {
          "internalType": "address",
          "name": "from",
          "type": "address"
        },
        {
          "internalType": "address",
          "name": "to",
          "type": "address"
        },
        {
          "internalType": "uint256",
          "name": "price",
          "type": "uint256"
        },
        {
          "internalType": "uint256",
          "name": "quantity",
          "type": "uint256"
        }
      ],
      "stateMutability": "view",
      "type": "function",
      "constant": true
    },
    {
      "inputs": [
        {
          "internalType": "uint256",
          "name": "",
          "type": "uint256"
        }
      ],
      "name": "matching",
      "outputs": [
        {
          "internalType": "address",
          "name": "from",
          "type": "address"
        },
        {
          "internalType": "address",
          "name": "to",
          "type": "address"
        },
        {
          "internalType": "uint256",
          "name": "price",
          "type": "uint256"
        },
        {
          "internalType": "uint256",
          "name": "quantity",
          "type": "uint256"
        }
      ],
      "stateMutability": "view",
      "type": "function",
      "constant": true
    },
    {
      "inputs": [
        {
          "internalType": "uint256",
          "name": "",
          "type": "uint256"
        }
      ],
      "name": "misuration",
      "outputs": [
        {
          "internalType": "address",
          "name": "user",
          "type": "address"
        },
        {
          "internalType": "uint128",
          "name": "generated",
          "type": "uint128"
        },
        {
          "internalType": "uint128",
          "name": "consumed",
          "type": "uint128"
        }
      ],
      "stateMutability": "view",
      "type": "function",
      "constant": true
    },
    {
      "inputs": [
        {
          "internalType": "uint256",
          "name": "",
          "type": "uint256"
        }
      ],
      "name": "offers",
      "outputs": [
        {
          "internalType": "address",
          "name": "user",
          "type": "address"
        },
        {
          "internalType": "uint256",
          "name": "minPrice",
          "type": "uint256"
        },
        {
          "internalType": "uint256",
          "name": "creationDate",
          "type": "uint256"
        }
      ],
      "stateMutability": "view",
      "type": "function",
      "constant": true
    },
    {
      "inputs": [
        {
          "internalType": "address",
          "name": "_address",
          "type": "address"
        },
        {
          "internalType": "uint256",
          "name": "_maxPrice",
          "type": "uint256"
        },
        {
          "internalType": "uint256",
          "name": "_creationDate",
          "type": "uint256"
        }
      ],
      "name": "createOffer",
      "outputs": [],
      "stateMutability": "nonpayable",
      "type": "function"
    },
    {
      "inputs": [
        {
          "internalType": "address",
          "name": "_address",
          "type": "address"
        },
        {
          "internalType": "uint256",
          "name": "_minPrice",
          "type": "uint256"
        },
        {
          "internalType": "uint256",
          "name": "_creationDate",
          "type": "uint256"
        }
      ],
      "name": "createBid",
      "outputs": [],
      "stateMutability": "nonpayable",
      "type": "function"
    },
    {
      "inputs": [
        {
          "internalType": "address",
          "name": "_address",
          "type": "address"
        },
        {
          "internalType": "uint128",
          "name": "_produced",
          "type": "uint128"
        },
        {
          "internalType": "uint128",
          "name": "_consumed",
          "type": "uint128"
        }
      ],
      "name": "addMisuration",
      "outputs": [],
      "stateMutability": "nonpayable",
      "type": "function"
    },
    {
      "inputs": [],
      "name": "getOffers",
      "outputs": [
        {
          "components": [
            {
              "internalType": "address",
              "name": "user",
              "type": "address"
            },
            {
              "internalType": "uint256",
              "name": "minPrice",
              "type": "uint256"
            },
            {
              "internalType": "uint256",
              "name": "creationDate",
              "type": "uint256"
            }
          ],
          "internalType": "struct MarketMicroGridContract.Offer[]",
          "name": "",
          "type": "tuple[]"
        }
      ],
      "stateMutability": "view",
      "type": "function",
      "constant": true
    },
    {
      "inputs": [],
      "name": "getBids",
      "outputs": [
        {
          "components": [
            {
              "internalType": "address",
              "name": "user",
              "type": "address"
            },
            {
              "internalType": "uint256",
              "name": "maxPrice",
              "type": "uint256"
            },
            {
              "internalType": "uint256",
              "name": "creationDate",
              "type": "uint256"
            }
          ],
          "internalType": "struct MarketMicroGridContract.Bid[]",
          "name": "",
          "type": "tuple[]"
        }
      ],
      "stateMutability": "view",
      "type": "function",
      "constant": true
    },
    {
      "inputs": [
        {
          "components": [
            {
              "internalType": "address",
              "name": "from",
              "type": "address"
            },
            {
              "internalType": "address",
              "name": "to",
              "type": "address"
            },
            {
              "internalType": "uint256",
              "name": "price",
              "type": "uint256"
            },
            {
              "internalType": "uint256",
              "name": "quantity",
              "type": "uint256"
            }
          ],
          "internalType": "struct MarketMicroGridContract.Matching[]",
          "name": "_matchingList",
          "type": "tuple[]"
        }
      ],
      "name": "createMatch",
      "outputs": [],
      "stateMutability": "nonpayable",
      "type": "function"
    },
    {
      "inputs": [],
      "name": "getMatch",
      "outputs": [
        {
          "components": [
            {
              "internalType": "address",
              "name": "from",
              "type": "address"
            },
            {
              "internalType": "address",
              "name": "to",
              "type": "address"
            },
            {
              "internalType": "uint256",
              "name": "price",
              "type": "uint256"
            },
            {
              "internalType": "uint256",
              "name": "quantity",
              "type": "uint256"
            }
          ],
          "internalType": "struct MarketMicroGridContract.Matching[]",
          "name": "",
          "type": "tuple[]"
        }
      ],
      "stateMutability": "view",
      "type": "function",
      "constant": true
    }
  ],
  "bytecode": "0x608060405234801561001057600080fd5b5061161d806100206000396000f3fe608060405234801561001057600080fd5b50600436106100b45760003560e01c80637e55aca5116100715780637e55aca5146101975780638a72ea6a146101b3578063aae758ea146101e5578063b81c78ec14610217578063c22f5c6b14610235578063fba133d914610251576100b4565b80631c6c7128146100b95780632415d692146100d557806326835e3c146101085780633d8a03af146101295780633ee992ee146101475780634423c5f114610165575b600080fd5b6100d360048036038101906100ce9190610cd3565b61026d565b005b6100ef60048036038101906100ea9190610d26565b610360565b6040516100ff9493929190610d71565b60405180910390f35b6101106103e0565b6040516101209493929190610d71565b60405180910390f35b61013161043e565b60405161013e9190610ed8565b60405180910390f35b61014f61055d565b60405161015c9190610feb565b60405180910390f35b61017f600480360381019061017a9190610d26565b610626565b60405161018e9392919061100d565b60405180910390f35b6101b160048036038101906101ac919061108c565b610680565b005b6101cd60048036038101906101c89190610d26565b6107cc565b6040516101dc9392919061100d565b60405180910390f35b6101ff60048036038101906101fa9190610d26565b610826565b60405161020e939291906110ee565b60405180910390f35b61021f6108b8565b60405161022c9190611216565b60405180910390f35b61024f600480360381019061024a919061140e565b610981565b005b61026b60048036038101906102669190610cd3565b610b38565b005b600060405180606001604052808573ffffffffffffffffffffffffffffffffffffffff16815260200184815260200183815250908060018154018082558091505060019003906000526020600020906003020160009091909190915060008201518160000160006101000a81548173ffffffffffffffffffffffffffffffffffffffff021916908373ffffffffffffffffffffffffffffffffffffffff160217905550602082015181600101556040820151816002015550507fab5385bdf2087954d79841430d81dc464fd9ac11bbf521d2d9d83f8ca22f2605604051610353906114b4565b60405180910390a1505050565b6003818154811061037057600080fd5b90600052602060002090600402016000915090508060000160009054906101000a900473ffffffffffffffffffffffffffffffffffffffff16908060010160009054906101000a900473ffffffffffffffffffffffffffffffffffffffff16908060020154908060030154905084565b60048060000160009054906101000a900473ffffffffffffffffffffffffffffffffffffffff16908060010160009054906101000a900473ffffffffffffffffffffffffffffffffffffffff16908060020154908060030154905084565b60606003805480602002602001604051908101604052809291908181526020016000905b8282101561055457838290600052602060002090600402016040518060800160405290816000820160009054906101000a900473ffffffffffffffffffffffffffffffffffffffff1673ffffffffffffffffffffffffffffffffffffffff1673ffffffffffffffffffffffffffffffffffffffff1681526020016001820160009054906101000a900473ffffffffffffffffffffffffffffffffffffffff1673ffffffffffffffffffffffffffffffffffffffff1673ffffffffffffffffffffffffffffffffffffffff1681526020016002820154815260200160038201548152505081526020019060010190610462565b50505050905090565b60606000805480602002602001604051908101604052809291908181526020016000905b8282101561061d57838290600052602060002090600302016040518060600160405290816000820160009054906101000a900473ffffffffffffffffffffffffffffffffffffffff1673ffffffffffffffffffffffffffffffffffffffff1673ffffffffffffffffffffffffffffffffffffffff1681526020016001820154815260200160028201548152505081526020019060010190610581565b50505050905090565b6001818154811061063657600080fd5b90600052602060002090600302016000915090508060000160009054906101000a900473ffffffffffffffffffffffffffffffffffffffff16908060010154908060020154905083565b600260405180606001604052808573ffffffffffffffffffffffffffffffffffffffff168152602001846fffffffffffffffffffffffffffffffff168152602001836fffffffffffffffffffffffffffffffff16815250908060018154018082558091505060019003906000526020600020906002020160009091909190915060008201518160000160006101000a81548173ffffffffffffffffffffffffffffffffffffffff021916908373ffffffffffffffffffffffffffffffffffffffff16021790555060208201518160010160006101000a8154816fffffffffffffffffffffffffffffffff02191690836fffffffffffffffffffffffffffffffff16021790555060408201518160010160106101000a8154816fffffffffffffffffffffffffffffffff02191690836fffffffffffffffffffffffffffffffff1602179055505050505050565b600081815481106107dc57600080fd5b90600052602060002090600302016000915090508060000160009054906101000a900473ffffffffffffffffffffffffffffffffffffffff16908060010154908060020154905083565b6002818154811061083657600080fd5b90600052602060002090600202016000915090508060000160009054906101000a900473ffffffffffffffffffffffffffffffffffffffff16908060010160009054906101000a90046fffffffffffffffffffffffffffffffff16908060010160109054906101000a90046fffffffffffffffffffffffffffffffff16905083565b60606001805480602002602001604051908101604052809291908181526020016000905b8282101561097857838290600052602060002090600302016040518060600160405290816000820160009054906101000a900473ffffffffffffffffffffffffffffffffffffffff1673ffffffffffffffffffffffffffffffffffffffff1673ffffffffffffffffffffffffffffffffffffffff16815260200160018201548152602001600282015481525050815260200190600101906108dc565b50505050905090565b60005b8151811015610b3457600360405180608001604052808484815181106109ad576109ac6114d4565b5b60200260200101516000015173ffffffffffffffffffffffffffffffffffffffff1681526020018484815181106109e7576109e66114d4565b5b60200260200101516020015173ffffffffffffffffffffffffffffffffffffffff168152602001848481518110610a2157610a206114d4565b5b6020026020010151604001518152602001848481518110610a4557610a446114d4565b5b602002602001015160600151815250908060018154018082558091505060019003906000526020600020906004020160009091909190915060008201518160000160006101000a81548173ffffffffffffffffffffffffffffffffffffffff021916908373ffffffffffffffffffffffffffffffffffffffff16021790555060208201518160010160006101000a81548173ffffffffffffffffffffffffffffffffffffffff021916908373ffffffffffffffffffffffffffffffffffffffff160217905550604082015181600201556060820151816003015550508080610b2c90611532565b915050610984565b5050565b600160405180606001604052808573ffffffffffffffffffffffffffffffffffffffff16815260200184815260200183815250908060018154018082558091505060019003906000526020600020906003020160009091909190915060008201518160000160006101000a81548173ffffffffffffffffffffffffffffffffffffffff021916908373ffffffffffffffffffffffffffffffffffffffff160217905550602082015181600101556040820151816002015550507fcc7badc6f30b4a8ffc7e82154af1dd338ed51ba086fb172b940e62155f7cce6a604051610c1e906115c7565b60405180910390a1505050565b6000604051905090565b600080fd5b600080fd5b600073ffffffffffffffffffffffffffffffffffffffff82169050919050565b6000610c6a82610c3f565b9050919050565b610c7a81610c5f565b8114610c8557600080fd5b50565b600081359050610c9781610c71565b92915050565b6000819050919050565b610cb081610c9d565b8114610cbb57600080fd5b50565b600081359050610ccd81610ca7565b92915050565b600080600060608486031215610cec57610ceb610c35565b5b6000610cfa86828701610c88565b9350506020610d0b86828701610cbe565b9250506040610d1c86828701610cbe565b9150509250925092565b600060208284031215610d3c57610d3b610c35565b5b6000610d4a84828501610cbe565b91505092915050565b610d5c81610c5f565b82525050565b610d6b81610c9d565b82525050565b6000608082019050610d866000830187610d53565b610d936020830186610d53565b610da06040830185610d62565b610dad6060830184610d62565b95945050505050565b600081519050919050565b600082825260208201905092915050565b6000819050602082019050919050565b610deb81610c5f565b82525050565b610dfa81610c9d565b82525050565b608082016000820151610e166000850182610de2565b506020820151610e296020850182610de2565b506040820151610e3c6040850182610df1565b506060820151610e4f6060850182610df1565b50505050565b6000610e618383610e00565b60808301905092915050565b6000602082019050919050565b6000610e8582610db6565b610e8f8185610dc1565b9350610e9a83610dd2565b8060005b83811015610ecb578151610eb28882610e55565b9750610ebd83610e6d565b925050600181019050610e9e565b5085935050505092915050565b60006020820190508181036000830152610ef28184610e7a565b905092915050565b600081519050919050565b600082825260208201905092915050565b6000819050602082019050919050565b606082016000820151610f3c6000850182610de2565b506020820151610f4f6020850182610df1565b506040820151610f626040850182610df1565b50505050565b6000610f748383610f26565b60608301905092915050565b6000602082019050919050565b6000610f9882610efa565b610fa28185610f05565b9350610fad83610f16565b8060005b83811015610fde578151610fc58882610f68565b9750610fd083610f80565b925050600181019050610fb1565b5085935050505092915050565b600060208201905081810360008301526110058184610f8d565b905092915050565b60006060820190506110226000830186610d53565b61102f6020830185610d62565b61103c6040830184610d62565b949350505050565b60006fffffffffffffffffffffffffffffffff82169050919050565b61106981611044565b811461107457600080fd5b50565b60008135905061108681611060565b92915050565b6000806000606084860312156110a5576110a4610c35565b5b60006110b386828701610c88565b93505060206110c486828701611077565b92505060406110d586828701611077565b9150509250925092565b6110e881611044565b82525050565b60006060820190506111036000830186610d53565b61111060208301856110df565b61111d60408301846110df565b949350505050565b600081519050919050565b600082825260208201905092915050565b6000819050602082019050919050565b6060820160008201516111676000850182610de2565b50602082015161117a6020850182610df1565b50604082015161118d6040850182610df1565b50505050565b600061119f8383611151565b60608301905092915050565b6000602082019050919050565b60006111c382611125565b6111cd8185611130565b93506111d883611141565b8060005b838110156112095781516111f08882611193565b97506111fb836111ab565b9250506001810190506111dc565b5085935050505092915050565b6000602082019050818103600083015261123081846111b8565b905092915050565b600080fd5b6000601f19601f8301169050919050565b7f4e487b7100000000000000000000000000000000000000000000000000000000600052604160045260246000fd5b6112868261123d565b810181811067ffffffffffffffff821117156112a5576112a461124e565b5b80604052505050565b60006112b8610c2b565b90506112c4828261127d565b919050565b600067ffffffffffffffff8211156112e4576112e361124e565b5b602082029050602081019050919050565b600080fd5b600080fd5b600060808284031215611315576113146112fa565b5b61131f60806112ae565b9050600061132f84828501610c88565b600083015250602061134384828501610c88565b602083015250604061135784828501610cbe565b604083015250606061136b84828501610cbe565b60608301525092915050565b600061138a611385846112c9565b6112ae565b905080838252602082019050608084028301858111156113ad576113ac6112f5565b5b835b818110156113d657806113c288826112ff565b8452602084019350506080810190506113af565b5050509392505050565b600082601f8301126113f5576113f4611238565b5b8135611405848260208601611377565b91505092915050565b60006020828403121561142457611423610c35565b5b600082013567ffffffffffffffff81111561144257611441610c3a565b5b61144e848285016113e0565b91505092915050565b600082825260208201905092915050565b7f4f66666572206372656174656400000000000000000000000000000000000000600082015250565b600061149e600d83611457565b91506114a982611468565b602082019050919050565b600060208201905081810360008301526114cd81611491565b9050919050565b7f4e487b7100000000000000000000000000000000000000000000000000000000600052603260045260246000fd5b7f4e487b7100000000000000000000000000000000000000000000000000000000600052601160045260246000fd5b600061153d82610c9d565b91507fffffffffffffffffffffffffffffffffffffffffffffffffffffffffffffffff8214156115705761156f611503565b5b600182019050919050565b7f4269642063726561746564000000000000000000000000000000000000000000600082015250565b60006115b1600b83611457565b91506115bc8261157b565b602082019050919050565b600060208201905081810360008301526115e0816115a4565b905091905056fea2646970667358221220265e8971997d1cd40e1dfbb871f9ba7f614b0fda56931b48702861e6ee69da3564736f6c634300080b0033",
  "immutableReferences": {},
  "source": "// SPDX-License-Identifier: MIT\r\n\r\npragma solidity ^0.8.11;\r\n\r\ncontract MarketMicroGridContract {\r\n    struct Offer {\r\n        address user;\r\n        /**\r\n           minumum price which user is willing to sell\r\n         */\r\n        uint256 minPrice;\r\n        uint creationDate;\r\n    }\r\n\r\n    struct Bid {\r\n        address user;\r\n        uint256 maxPrice;\r\n        uint creationDate;\r\n    }\r\n\r\n    struct SmartMisuration {\r\n        address user;\r\n        /* Define energy that has been generated from user */\r\n        uint128 generated;\r\n        /** Define energy that has been consumed from user in time range (es. each 15min ) */\r\n        uint128 consumed;\r\n    }\r\n\r\n    struct Matching {\r\n        address from;\r\n        address to;\r\n        uint256 price;\r\n        uint256 quantity;\r\n    }\r\n\r\n    Offer[] public offers;\r\n    Bid[] public bids;\r\n    SmartMisuration[] public misuration;\r\n    Matching[] public matching;\r\n    Matching public matchTest;\r\n\r\n    /**Events */\r\n    event OfferCreated(string message);\r\n    event BidCreated(string message);\r\n\r\n    /**Functions */\r\n    function createOffer(\r\n        address _address,\r\n        uint256 _maxPrice,\r\n        uint _creationDate\r\n    ) external {\r\n        offers.push(Offer(_address, _maxPrice, _creationDate));\r\n        emit OfferCreated(\"Offer created\");\r\n    }\r\n\r\n    function createBid(\r\n        address _address,\r\n        uint256 _minPrice,\r\n        uint _creationDate\r\n    ) external {\r\n        bids.push(Bid(_address, _minPrice, _creationDate));\r\n        emit BidCreated(\"Bid created\");\r\n    }\r\n\r\n    function addMisuration(\r\n        address _address,\r\n        uint128 _produced,\r\n        uint128 _consumed\r\n    ) external {\r\n        misuration.push(SmartMisuration(_address, _produced, _consumed));\r\n    }\r\n\r\n    function getOffers() public view returns (Offer[] memory) {\r\n        return offers;\r\n    }\r\n\r\n    function getBids() public view returns (Bid[] memory) {\r\n        return bids;\r\n    }\r\n\r\n    function createMatch(Matching[] memory _matchingList) external {\r\n        for (uint i = 0; i < _matchingList.length; i++) {\r\n            matching.push(\r\n                Matching(\r\n                    _matchingList[i].from,\r\n                    _matchingList[i].to,\r\n                    _matchingList[i].price,\r\n                    _matchingList[i].quantity\r\n                )\r\n            );\r\n        }\r\n    }\r\n\r\n    function getMatch() public view returns (Matching[] memory) {\r\n        return matching;\r\n    }\r\n}\r\n",
  "sourcePath": "C:\\Users\\salva\\OneDrive\\Desktop\\progetto-tesi\\EW-did-management\\blockchain\\contracts\\MarketMicroGrid.sol",
  "compiler": {
    "name": "solc",
    "version": "0.8.11+commit.d7f03943.Emscripten.clang"
  },
  "schemaVersion": "3.4.13",
  "updatedAt": "2023-04-18T14:43:52.125Z",
  "networkType": "ethereum",
  "devdoc": {
    "kind": "dev",
    "methods": {},
    "version": 1
  },
  "userdoc": {
    "events": {
      "OfferCreated(string)": {
        "notice": "Events "
      }
    },
    "kind": "user",
    "methods": {
      "createOffer(address,uint256,uint256)": {
        "notice": "Functions "
      }
    },
    "version": 1
  }
}