{
  "contractName": "MarketMicroGridContract",
  "abi": [
    {
      "anonymous": false,
      "inputs": [
        {
          "indexed": false,
          "internalType": "string",
          "name": "message",
          "type": "string"
        }
      ],
      "name": "BidCreated",
      "type": "event"
    },
    {
      "anonymous": false,
      "inputs": [
        {
          "indexed": false,
          "internalType": "string",
          "name": "message",
          "type": "string"
        }
      ],
      "name": "OfferCreated",
      "type": "event"
    },
    {
      "inputs": [
        {
          "internalType": "uint256",
          "name": "",
          "type": "uint256"
        }
      ],
      "name": "bids",
      "outputs": [
        {
          "internalType": "address",
          "name": "user",
          "type": "address"
        },
        {
          "internalType": "uint256",
          "name": "maxPrice",
          "type": "uint256"
        },
        {
          "internalType": "uint256",
          "name": "creationDate",
          "type": "uint256"
        }
      ],
      "stateMutability": "view",
      "type": "function",
      "constant": true
    },
    {
      "inputs": [],
      "name": "matchTest",
      "outputs": [
        {
          "internalType": "address",
          "name": "from",
          "type": "address"
        },
        {
          "internalType": "address",
          "name": "to",
          "type": "address"
        },
        {
          "internalType": "uint256",
          "name": "price",
          "type": "uint256"
        },
        {
          "internalType": "uint256",
          "name": "quantity",
          "type": "uint256"
        }
      ],
      "stateMutability": "view",
      "type": "function",
      "constant": true
    },
    {
      "inputs": [
        {
          "internalType": "uint256",
          "name": "",
          "type": "uint256"
        }
      ],
      "name": "matching",
      "outputs": [
        {
          "internalType": "address",
          "name": "from",
          "type": "address"
        },
        {
          "internalType": "address",
          "name": "to",
          "type": "address"
        },
        {
          "internalType": "uint256",
          "name": "price",
          "type": "uint256"
        },
        {
          "internalType": "uint256",
          "name": "quantity",
          "type": "uint256"
        }
      ],
      "stateMutability": "view",
      "type": "function",
      "constant": true
    },
    {
      "inputs": [
        {
          "internalType": "uint256",
          "name": "",
          "type": "uint256"
        }
      ],
      "name": "misuration",
      "outputs": [
        {
          "internalType": "address",
          "name": "user",
          "type": "address"
        },
        {
          "internalType": "uint128",
          "name": "generated",
          "type": "uint128"
        },
        {
          "internalType": "uint128",
          "name": "consumed",
          "type": "uint128"
        }
      ],
      "stateMutability": "view",
      "type": "function",
      "constant": true
    },
    {
      "inputs": [
        {
          "internalType": "uint256",
          "name": "",
          "type": "uint256"
        }
      ],
      "name": "offers",
      "outputs": [
        {
          "internalType": "address",
          "name": "user",
          "type": "address"
        },
        {
          "internalType": "uint256",
          "name": "minPrice",
          "type": "uint256"
        },
        {
          "internalType": "uint256",
          "name": "creationDate",
          "type": "uint256"
        }
      ],
      "stateMutability": "view",
      "type": "function",
      "constant": true
    },
    {
      "inputs": [
        {
          "internalType": "address",
          "name": "",
          "type": "address"
        },
        {
          "internalType": "uint256",
          "name": "",
          "type": "uint256"
        }
      ],
      "name": "userBids",
      "outputs": [
        {
          "internalType": "address",
          "name": "user",
          "type": "address"
        },
        {
          "internalType": "uint256",
          "name": "maxPrice",
          "type": "uint256"
        },
        {
          "internalType": "uint256",
          "name": "creationDate",
          "type": "uint256"
        }
      ],
      "stateMutability": "view",
      "type": "function",
      "constant": true
    },
    {
      "inputs": [
        {
          "internalType": "address",
          "name": "",
          "type": "address"
        },
        {
          "internalType": "uint256",
          "name": "",
          "type": "uint256"
        }
      ],
      "name": "userOffers",
      "outputs": [
        {
          "internalType": "address",
          "name": "user",
          "type": "address"
        },
        {
          "internalType": "uint256",
          "name": "minPrice",
          "type": "uint256"
        },
        {
          "internalType": "uint256",
          "name": "creationDate",
          "type": "uint256"
        }
      ],
      "stateMutability": "view",
      "type": "function",
      "constant": true
    },
    {
      "inputs": [
        {
          "internalType": "address",
          "name": "_address",
          "type": "address"
        },
        {
          "internalType": "uint256",
          "name": "_maxPrice",
          "type": "uint256"
        },
        {
          "internalType": "uint256",
          "name": "_creationDate",
          "type": "uint256"
        }
      ],
      "name": "createOffer",
      "outputs": [],
      "stateMutability": "nonpayable",
      "type": "function"
    },
    {
      "inputs": [],
      "name": "deleteAllOffers",
      "outputs": [],
      "stateMutability": "nonpayable",
      "type": "function"
    },
    {
      "inputs": [
        {
          "internalType": "address",
          "name": "_address",
          "type": "address"
        },
        {
          "internalType": "uint256",
          "name": "_minPrice",
          "type": "uint256"
        },
        {
          "internalType": "uint256",
          "name": "_creationDate",
          "type": "uint256"
        }
      ],
      "name": "createBid",
      "outputs": [],
      "stateMutability": "nonpayable",
      "type": "function"
    },
    {
      "inputs": [
        {
          "internalType": "address",
          "name": "_address",
          "type": "address"
        },
        {
          "internalType": "uint128",
          "name": "_produced",
          "type": "uint128"
        },
        {
          "internalType": "uint128",
          "name": "_consumed",
          "type": "uint128"
        }
      ],
      "name": "addMisuration",
      "outputs": [],
      "stateMutability": "nonpayable",
      "type": "function"
    },
    {
      "inputs": [],
      "name": "getOffers",
      "outputs": [
        {
          "components": [
            {
              "internalType": "address",
              "name": "user",
              "type": "address"
            },
            {
              "internalType": "uint256",
              "name": "minPrice",
              "type": "uint256"
            },
            {
              "internalType": "uint256",
              "name": "creationDate",
              "type": "uint256"
            }
          ],
          "internalType": "struct MarketMicroGridContract.Offer[]",
          "name": "",
          "type": "tuple[]"
        }
      ],
      "stateMutability": "view",
      "type": "function",
      "constant": true
    },
    {
      "inputs": [
        {
          "internalType": "address",
          "name": "_address",
          "type": "address"
        }
      ],
      "name": "getOffersByAddress",
      "outputs": [
        {
          "components": [
            {
              "internalType": "address",
              "name": "user",
              "type": "address"
            },
            {
              "internalType": "uint256",
              "name": "minPrice",
              "type": "uint256"
            },
            {
              "internalType": "uint256",
              "name": "creationDate",
              "type": "uint256"
            }
          ],
          "internalType": "struct MarketMicroGridContract.Offer[]",
          "name": "",
          "type": "tuple[]"
        }
      ],
      "stateMutability": "view",
      "type": "function",
      "constant": true
    },
    {
      "inputs": [
        {
          "internalType": "address",
          "name": "_address",
          "type": "address"
        }
      ],
      "name": "getBidsByAddress",
      "outputs": [
        {
          "components": [
            {
              "internalType": "address",
              "name": "user",
              "type": "address"
            },
            {
              "internalType": "uint256",
              "name": "maxPrice",
              "type": "uint256"
            },
            {
              "internalType": "uint256",
              "name": "creationDate",
              "type": "uint256"
            }
          ],
          "internalType": "struct MarketMicroGridContract.Bid[]",
          "name": "",
          "type": "tuple[]"
        }
      ],
      "stateMutability": "view",
      "type": "function",
      "constant": true
    },
    {
      "inputs": [],
      "name": "getBids",
      "outputs": [
        {
          "components": [
            {
              "internalType": "address",
              "name": "user",
              "type": "address"
            },
            {
              "internalType": "uint256",
              "name": "maxPrice",
              "type": "uint256"
            },
            {
              "internalType": "uint256",
              "name": "creationDate",
              "type": "uint256"
            }
          ],
          "internalType": "struct MarketMicroGridContract.Bid[]",
          "name": "",
          "type": "tuple[]"
        }
      ],
      "stateMutability": "view",
      "type": "function",
      "constant": true
    },
    {
      "inputs": [
        {
          "components": [
            {
              "internalType": "address",
              "name": "from",
              "type": "address"
            },
            {
              "internalType": "address",
              "name": "to",
              "type": "address"
            },
            {
              "internalType": "uint256",
              "name": "price",
              "type": "uint256"
            },
            {
              "internalType": "uint256",
              "name": "quantity",
              "type": "uint256"
            }
          ],
          "internalType": "struct MarketMicroGridContract.Matching[]",
          "name": "_matchingList",
          "type": "tuple[]"
        }
      ],
      "name": "createMatch",
      "outputs": [],
      "stateMutability": "nonpayable",
      "type": "function"
    },
    {
      "inputs": [],
      "name": "getMatch",
      "outputs": [
        {
          "components": [
            {
              "internalType": "address",
              "name": "from",
              "type": "address"
            },
            {
              "internalType": "address",
              "name": "to",
              "type": "address"
            },
            {
              "internalType": "uint256",
              "name": "price",
              "type": "uint256"
            },
            {
              "internalType": "uint256",
              "name": "quantity",
              "type": "uint256"
            }
          ],
          "internalType": "struct MarketMicroGridContract.Matching[]",
          "name": "",
          "type": "tuple[]"
        }
      ],
      "stateMutability": "view",
      "type": "function",
      "constant": true
    }
  ],
  "bytecode": "0x608060405234801561001057600080fd5b50611cfa806100206000396000f3fe608060405234801561001057600080fd5b506004361061010b5760003560e01c80638a72ea6a116100a2578063bd5fec6511610071578063bd5fec65146102c8578063bfa5e00d146102fa578063c22f5c6b1461032a578063ee9b66ec14610346578063fba133d9146103765761010b565b80638a72ea6a1461021457806396ec50c314610246578063aae758ea14610278578063b81c78ec146102aa5761010b565b80633d8a03af116100de5780633d8a03af1461018a5780633ee992ee146101a85780634423c5f1146101c65780637e55aca5146101f85761010b565b80631c6c7128146101105780632415d6921461012c57806326835e3c1461015f578063322fba2714610180575b600080fd5b61012a60048036038101906101259190611343565b610392565b005b61014660048036038101906101419190611396565b61057b565b60405161015694939291906113e1565b60405180910390f35b6101676105fb565b60405161017794939291906113e1565b60405180910390f35b610188610659565b005b610192610668565b60405161019f9190611548565b60405180910390f35b6101b0610787565b6040516101bd919061165b565b60405180910390f35b6101e060048036038101906101db9190611396565b610850565b6040516101ef9392919061167d565b60405180910390f35b610212600480360381019061020d91906116fc565b6108aa565b005b61022e60048036038101906102299190611396565b6109f6565b60405161023d9392919061167d565b60405180910390f35b610260600480360381019061025b919061174f565b610a50565b60405161026f9392919061167d565b60405180910390f35b610292600480360381019061028d9190611396565b610ab7565b6040516102a19392919061179e565b60405180910390f35b6102b2610b49565b6040516102bf91906118c6565b60405180910390f35b6102e260048036038101906102dd919061174f565b610c12565b6040516102f19392919061167d565b60405180910390f35b610314600480360381019061030f91906118e8565b610c79565b604051610321919061165b565b60405180910390f35b610344600480360381019061033f9190611aeb565b610d81565b005b610360600480360381019061035b91906118e8565b610f38565b60405161036d91906118c6565b60405180910390f35b610390600480360381019061038b9190611343565b611040565b005b600060405180606001604052808573ffffffffffffffffffffffffffffffffffffffff16815260200184815260200183815250908060018154018082558091505060019003906000526020600020906003020160009091909190915060008201518160000160006101000a81548173ffffffffffffffffffffffffffffffffffffffff021916908373ffffffffffffffffffffffffffffffffffffffff16021790555060208201518160010155604082015181600201555050600860008473ffffffffffffffffffffffffffffffffffffffff1673ffffffffffffffffffffffffffffffffffffffff16815260200190815260200160002060405180606001604052808573ffffffffffffffffffffffffffffffffffffffff16815260200184815260200183815250908060018154018082558091505060019003906000526020600020906003020160009091909190915060008201518160000160006101000a81548173ffffffffffffffffffffffffffffffffffffffff021916908373ffffffffffffffffffffffffffffffffffffffff160217905550602082015181600101556040820151816002015550507fab5385bdf2087954d79841430d81dc464fd9ac11bbf521d2d9d83f8ca22f260560405161056e90611b91565b60405180910390a1505050565b6003818154811061058b57600080fd5b90600052602060002090600402016000915090508060000160009054906101000a900473ffffffffffffffffffffffffffffffffffffffff16908060010160009054906101000a900473ffffffffffffffffffffffffffffffffffffffff16908060020154908060030154905084565b60048060000160009054906101000a900473ffffffffffffffffffffffffffffffffffffffff16908060010160009054906101000a900473ffffffffffffffffffffffffffffffffffffffff16908060020154908060030154905084565b6000806106669190611229565b565b60606003805480602002602001604051908101604052809291908181526020016000905b8282101561077e57838290600052602060002090600402016040518060800160405290816000820160009054906101000a900473ffffffffffffffffffffffffffffffffffffffff1673ffffffffffffffffffffffffffffffffffffffff1673ffffffffffffffffffffffffffffffffffffffff1681526020016001820160009054906101000a900473ffffffffffffffffffffffffffffffffffffffff1673ffffffffffffffffffffffffffffffffffffffff1673ffffffffffffffffffffffffffffffffffffffff168152602001600282015481526020016003820154815250508152602001906001019061068c565b50505050905090565b60606000805480602002602001604051908101604052809291908181526020016000905b8282101561084757838290600052602060002090600302016040518060600160405290816000820160009054906101000a900473ffffffffffffffffffffffffffffffffffffffff1673ffffffffffffffffffffffffffffffffffffffff1673ffffffffffffffffffffffffffffffffffffffff16815260200160018201548152602001600282015481525050815260200190600101906107ab565b50505050905090565b6001818154811061086057600080fd5b90600052602060002090600302016000915090508060000160009054906101000a900473ffffffffffffffffffffffffffffffffffffffff16908060010154908060020154905083565b600260405180606001604052808573ffffffffffffffffffffffffffffffffffffffff168152602001846fffffffffffffffffffffffffffffffff168152602001836fffffffffffffffffffffffffffffffff16815250908060018154018082558091505060019003906000526020600020906002020160009091909190915060008201518160000160006101000a81548173ffffffffffffffffffffffffffffffffffffffff021916908373ffffffffffffffffffffffffffffffffffffffff16021790555060208201518160010160006101000a8154816fffffffffffffffffffffffffffffffff02191690836fffffffffffffffffffffffffffffffff16021790555060408201518160010160106101000a8154816fffffffffffffffffffffffffffffffff02191690836fffffffffffffffffffffffffffffffff1602179055505050505050565b60008181548110610a0657600080fd5b90600052602060002090600302016000915090508060000160009054906101000a900473ffffffffffffffffffffffffffffffffffffffff16908060010154908060020154905083565b60096020528160005260406000208181548110610a6c57600080fd5b9060005260206000209060030201600091509150508060000160009054906101000a900473ffffffffffffffffffffffffffffffffffffffff16908060010154908060020154905083565b60028181548110610ac757600080fd5b90600052602060002090600202016000915090508060000160009054906101000a900473ffffffffffffffffffffffffffffffffffffffff16908060010160009054906101000a90046fffffffffffffffffffffffffffffffff16908060010160109054906101000a90046fffffffffffffffffffffffffffffffff16905083565b60606001805480602002602001604051908101604052809291908181526020016000905b82821015610c0957838290600052602060002090600302016040518060600160405290816000820160009054906101000a900473ffffffffffffffffffffffffffffffffffffffff1673ffffffffffffffffffffffffffffffffffffffff1673ffffffffffffffffffffffffffffffffffffffff1681526020016001820154815260200160028201548152505081526020019060010190610b6d565b50505050905090565b60086020528160005260406000208181548110610c2e57600080fd5b9060005260206000209060030201600091509150508060000160009054906101000a900473ffffffffffffffffffffffffffffffffffffffff16908060010154908060020154905083565b6060600860008373ffffffffffffffffffffffffffffffffffffffff1673ffffffffffffffffffffffffffffffffffffffff168152602001908152602001600020805480602002602001604051908101604052809291908181526020016000905b82821015610d7657838290600052602060002090600302016040518060600160405290816000820160009054906101000a900473ffffffffffffffffffffffffffffffffffffffff1673ffffffffffffffffffffffffffffffffffffffff1673ffffffffffffffffffffffffffffffffffffffff1681526020016001820154815260200160028201548152505081526020019060010190610cda565b505050509050919050565b60005b8151811015610f345760036040518060800160405280848481518110610dad57610dac611bb1565b5b60200260200101516000015173ffffffffffffffffffffffffffffffffffffffff168152602001848481518110610de757610de6611bb1565b5b60200260200101516020015173ffffffffffffffffffffffffffffffffffffffff168152602001848481518110610e2157610e20611bb1565b5b6020026020010151604001518152602001848481518110610e4557610e44611bb1565b5b602002602001015160600151815250908060018154018082558091505060019003906000526020600020906004020160009091909190915060008201518160000160006101000a81548173ffffffffffffffffffffffffffffffffffffffff021916908373ffffffffffffffffffffffffffffffffffffffff16021790555060208201518160010160006101000a81548173ffffffffffffffffffffffffffffffffffffffff021916908373ffffffffffffffffffffffffffffffffffffffff160217905550604082015181600201556060820151816003015550508080610f2c90611c0f565b915050610d84565b5050565b6060600960008373ffffffffffffffffffffffffffffffffffffffff1673ffffffffffffffffffffffffffffffffffffffff168152602001908152602001600020805480602002602001604051908101604052809291908181526020016000905b8282101561103557838290600052602060002090600302016040518060600160405290816000820160009054906101000a900473ffffffffffffffffffffffffffffffffffffffff1673ffffffffffffffffffffffffffffffffffffffff1673ffffffffffffffffffffffffffffffffffffffff1681526020016001820154815260200160028201548152505081526020019060010190610f99565b505050509050919050565b600160405180606001604052808573ffffffffffffffffffffffffffffffffffffffff16815260200184815260200183815250908060018154018082558091505060019003906000526020600020906003020160009091909190915060008201518160000160006101000a81548173ffffffffffffffffffffffffffffffffffffffff021916908373ffffffffffffffffffffffffffffffffffffffff16021790555060208201518160010155604082015181600201555050600960008473ffffffffffffffffffffffffffffffffffffffff1673ffffffffffffffffffffffffffffffffffffffff16815260200190815260200160002060405180606001604052808573ffffffffffffffffffffffffffffffffffffffff16815260200184815260200183815250908060018154018082558091505060019003906000526020600020906003020160009091909190915060008201518160000160006101000a81548173ffffffffffffffffffffffffffffffffffffffff021916908373ffffffffffffffffffffffffffffffffffffffff160217905550602082015181600101556040820151816002015550507fcc7badc6f30b4a8ffc7e82154af1dd338ed51ba086fb172b940e62155f7cce6a60405161121c90611ca4565b60405180910390a1505050565b508054600082556003029060005260206000209081019061124a919061124d565b50565b5b8082111561129757600080820160006101000a81549073ffffffffffffffffffffffffffffffffffffffff0219169055600182016000905560028201600090555060030161124e565b5090565b6000604051905090565b600080fd5b600080fd5b600073ffffffffffffffffffffffffffffffffffffffff82169050919050565b60006112da826112af565b9050919050565b6112ea816112cf565b81146112f557600080fd5b50565b600081359050611307816112e1565b92915050565b6000819050919050565b6113208161130d565b811461132b57600080fd5b50565b60008135905061133d81611317565b92915050565b60008060006060848603121561135c5761135b6112a5565b5b600061136a868287016112f8565b935050602061137b8682870161132e565b925050604061138c8682870161132e565b9150509250925092565b6000602082840312156113ac576113ab6112a5565b5b60006113ba8482850161132e565b91505092915050565b6113cc816112cf565b82525050565b6113db8161130d565b82525050565b60006080820190506113f660008301876113c3565b61140360208301866113c3565b61141060408301856113d2565b61141d60608301846113d2565b95945050505050565b600081519050919050565b600082825260208201905092915050565b6000819050602082019050919050565b61145b816112cf565b82525050565b61146a8161130d565b82525050565b6080820160008201516114866000850182611452565b5060208201516114996020850182611452565b5060408201516114ac6040850182611461565b5060608201516114bf6060850182611461565b50505050565b60006114d18383611470565b60808301905092915050565b6000602082019050919050565b60006114f582611426565b6114ff8185611431565b935061150a83611442565b8060005b8381101561153b57815161152288826114c5565b975061152d836114dd565b92505060018101905061150e565b5085935050505092915050565b6000602082019050818103600083015261156281846114ea565b905092915050565b600081519050919050565b600082825260208201905092915050565b6000819050602082019050919050565b6060820160008201516115ac6000850182611452565b5060208201516115bf6020850182611461565b5060408201516115d26040850182611461565b50505050565b60006115e48383611596565b60608301905092915050565b6000602082019050919050565b60006116088261156a565b6116128185611575565b935061161d83611586565b8060005b8381101561164e57815161163588826115d8565b9750611640836115f0565b925050600181019050611621565b5085935050505092915050565b6000602082019050818103600083015261167581846115fd565b905092915050565b600060608201905061169260008301866113c3565b61169f60208301856113d2565b6116ac60408301846113d2565b949350505050565b60006fffffffffffffffffffffffffffffffff82169050919050565b6116d9816116b4565b81146116e457600080fd5b50565b6000813590506116f6816116d0565b92915050565b600080600060608486031215611715576117146112a5565b5b6000611723868287016112f8565b9350506020611734868287016116e7565b9250506040611745868287016116e7565b9150509250925092565b60008060408385031215611766576117656112a5565b5b6000611774858286016112f8565b92505060206117858582860161132e565b9150509250929050565b611798816116b4565b82525050565b60006060820190506117b360008301866113c3565b6117c0602083018561178f565b6117cd604083018461178f565b949350505050565b600081519050919050565b600082825260208201905092915050565b6000819050602082019050919050565b6060820160008201516118176000850182611452565b50602082015161182a6020850182611461565b50604082015161183d6040850182611461565b50505050565b600061184f8383611801565b60608301905092915050565b6000602082019050919050565b6000611873826117d5565b61187d81856117e0565b9350611888836117f1565b8060005b838110156118b95781516118a08882611843565b97506118ab8361185b565b92505060018101905061188c565b5085935050505092915050565b600060208201905081810360008301526118e08184611868565b905092915050565b6000602082840312156118fe576118fd6112a5565b5b600061190c848285016112f8565b91505092915050565b600080fd5b6000601f19601f8301169050919050565b7f4e487b7100000000000000000000000000000000000000000000000000000000600052604160045260246000fd5b6119638261191a565b810181811067ffffffffffffffff821117156119825761198161192b565b5b80604052505050565b600061199561129b565b90506119a1828261195a565b919050565b600067ffffffffffffffff8211156119c1576119c061192b565b5b602082029050602081019050919050565b600080fd5b600080fd5b6000608082840312156119f2576119f16119d7565b5b6119fc608061198b565b90506000611a0c848285016112f8565b6000830152506020611a20848285016112f8565b6020830152506040611a348482850161132e565b6040830152506060611a488482850161132e565b60608301525092915050565b6000611a67611a62846119a6565b61198b565b90508083825260208201905060808402830185811115611a8a57611a896119d2565b5b835b81811015611ab35780611a9f88826119dc565b845260208401935050608081019050611a8c565b5050509392505050565b600082601f830112611ad257611ad1611915565b5b8135611ae2848260208601611a54565b91505092915050565b600060208284031215611b0157611b006112a5565b5b600082013567ffffffffffffffff811115611b1f57611b1e6112aa565b5b611b2b84828501611abd565b91505092915050565b600082825260208201905092915050565b7f4f6666657220637265617465642073756363657366756c6c7900000000000000600082015250565b6000611b7b601983611b34565b9150611b8682611b45565b602082019050919050565b60006020820190508181036000830152611baa81611b6e565b9050919050565b7f4e487b7100000000000000000000000000000000000000000000000000000000600052603260045260246000fd5b7f4e487b7100000000000000000000000000000000000000000000000000000000600052601160045260246000fd5b6000611c1a8261130d565b91507fffffffffffffffffffffffffffffffffffffffffffffffffffffffffffffffff821415611c4d57611c4c611be0565b5b600182019050919050565b7f4269642063726561746564000000000000000000000000000000000000000000600082015250565b6000611c8e600b83611b34565b9150611c9982611c58565b602082019050919050565b60006020820190508181036000830152611cbd81611c81565b905091905056fea264697066735822122017482a3c0df03753f3751aecfee3f05a4ceff8813e954b9bb67c611fdfd5bb5464736f6c634300080b0033",
  "immutableReferences": {},
  "source": "// SPDX-License-Identifier: MIT\r\n\r\npragma solidity ^0.8.11;\r\n\r\ncontract MarketMicroGridContract {\r\n    struct Offer {\r\n        address user;\r\n        /**\r\n           minumum price which user is willing to sell\r\n         */\r\n        uint256 minPrice;\r\n        uint creationDate;\r\n    }\r\n\r\n    struct Bid {\r\n        address user;\r\n        uint256 maxPrice;\r\n        uint creationDate;\r\n    }\r\n\r\n    struct SmartMisuration {\r\n        address user;\r\n        /* Define energy that has been generated from user */\r\n        uint128 generated;\r\n        /** Define energy that has been consumed from user in time range (es. each 15min ) */\r\n        uint128 consumed;\r\n    }\r\n\r\n    struct Matching {\r\n        address from;\r\n        address to;\r\n        uint256 price;\r\n        uint256 quantity;\r\n    }\r\n\r\n    Offer[] public offers;\r\n    Bid[] public bids;\r\n    SmartMisuration[] public misuration;\r\n    Matching[] public matching;\r\n    Matching public matchTest;\r\n\r\n    mapping(address => Offer[]) public userOffers;\r\n    mapping(address => Bid[]) public userBids;\r\n\r\n    /**Events */\r\n    event OfferCreated(string message);\r\n    event BidCreated(string message);\r\n\r\n    /**Functions */\r\n    function createOffer(\r\n        address _address,\r\n        uint256 _maxPrice,\r\n        uint _creationDate\r\n    ) external {\r\n        offers.push(Offer(_address, _maxPrice, _creationDate));\r\n        userOffers[_address].push(Offer(_address, _maxPrice, _creationDate));\r\n        emit OfferCreated(\"Offer created succesfully\");\r\n    }\r\n\r\n    function deleteAllOffers() external {\r\n        delete offers;\r\n    }\r\n\r\n    function createBid(\r\n        address _address,\r\n        uint256 _minPrice,\r\n        uint _creationDate\r\n    ) external {\r\n        bids.push(Bid(_address, _minPrice, _creationDate));\r\n        userBids[_address].push(Bid(_address, _minPrice, _creationDate));\r\n        emit BidCreated(\"Bid created\");\r\n    }\r\n\r\n    function addMisuration(\r\n        address _address,\r\n        uint128 _produced,\r\n        uint128 _consumed\r\n    ) external {\r\n        misuration.push(SmartMisuration(_address, _produced, _consumed));\r\n    }\r\n\r\n    function getOffers() public view returns (Offer[] memory) {\r\n        return offers;\r\n    }\r\n\r\n    function getOffersByAddress(\r\n        address _address\r\n    ) public view returns (Offer[] memory) {\r\n        return userOffers[_address];\r\n    }\r\n\r\n    function getBidsByAddress(\r\n        address _address\r\n    ) public view returns (Bid[] memory) {\r\n        return userBids[_address];\r\n    }\r\n\r\n    function getBids() public view returns (Bid[] memory) {\r\n        return bids;\r\n    }\r\n\r\n    function createMatch(Matching[] memory _matchingList) external {\r\n        for (uint i = 0; i < _matchingList.length; i++) {\r\n            matching.push(\r\n                Matching(\r\n                    _matchingList[i].from,\r\n                    _matchingList[i].to,\r\n                    _matchingList[i].price,\r\n                    _matchingList[i].quantity\r\n                )\r\n            );\r\n        }\r\n    }\r\n\r\n    function getMatch() public view returns (Matching[] memory) {\r\n        return matching;\r\n    }\r\n}\r\n",
  "sourcePath": "C:\\Users\\salva\\OneDrive\\Desktop\\progetto-tesi\\EW-did-management\\blockchain\\contracts\\MarketMicroGrid.sol",
  "compiler": {
    "name": "solc",
    "version": "0.8.11+commit.d7f03943.Emscripten.clang"
  },
  "schemaVersion": "3.4.13",
  "updatedAt": "2023-04-22T09:19:10.879Z",
  "networkType": "ethereum",
  "devdoc": {
    "kind": "dev",
    "methods": {},
    "version": 1
  },
  "userdoc": {
    "events": {
      "OfferCreated(string)": {
        "notice": "Events "
      }
    },
    "kind": "user",
    "methods": {
      "createOffer(address,uint256,uint256)": {
        "notice": "Functions "
      }
    },
    "version": 1
  }
}