{
  "contractName": "MicgroGridContract",
  "abi": [
    {
      "inputs": [
        {
          "internalType": "address",
          "name": "",
          "type": "address"
        }
      ],
      "name": "eWOffersList",
      "outputs": [
        {
          "internalType": "address",
          "name": "asset",
          "type": "address"
        },
        {
          "internalType": "uint256",
          "name": "price",
          "type": "uint256"
        },
        {
          "internalType": "uint256",
          "name": "startDate",
          "type": "uint256"
        },
        {
          "internalType": "uint256",
          "name": "endDate",
          "type": "uint256"
        }
      ],
      "stateMutability": "view",
      "type": "function"
    },
    {
      "inputs": [
        {
          "internalType": "address",
          "name": "asset",
          "type": "address"
        },
        {
          "internalType": "uint256",
          "name": "price",
          "type": "uint256"
        },
        {
          "internalType": "uint256",
          "name": "startDate",
          "type": "uint256"
        },
        {
          "internalType": "uint256",
          "name": "endDate",
          "type": "uint256"
        }
      ],
      "name": "createEnergyOffer",
      "outputs": [],
      "stateMutability": "nonpayable",
      "type": "function"
    },
    {
      "inputs": [],
      "name": "returnMappingValue",
      "outputs": [
        {
          "components": [
            {
              "internalType": "address",
              "name": "asset",
              "type": "address"
            },
            {
              "internalType": "uint256",
              "name": "price",
              "type": "uint256"
            },
            {
              "internalType": "uint256",
              "name": "startDate",
              "type": "uint256"
            },
            {
              "internalType": "uint256",
              "name": "endDate",
              "type": "uint256"
            }
          ],
          "internalType": "struct MicgroGridContract.EnergyOffer",
          "name": "",
          "type": "tuple"
        }
      ],
      "stateMutability": "view",
      "type": "function"
    }
  ],
  "bytecode": "0x608060405234801561001057600080fd5b50610542806100206000396000f3fe608060405234801561001057600080fd5b50600436106100415760003560e01c8063c7cc6ab614610046578063dd2812bd14610064578063e117ce3714610080575b600080fd5b61004e6100b3565b60405161005b919061039d565b60405180910390f35b61007e60048036038101906100799190610415565b61017d565b005b61009a6004803603810190610095919061047c565b610260565b6040516100aa94939291906104c7565b60405180910390f35b6100bb6102b0565b6000803373ffffffffffffffffffffffffffffffffffffffff1673ffffffffffffffffffffffffffffffffffffffff1681526020019081526020016000206040518060800160405290816000820160009054906101000a900473ffffffffffffffffffffffffffffffffffffffff1673ffffffffffffffffffffffffffffffffffffffff1673ffffffffffffffffffffffffffffffffffffffff1681526020016001820154815260200160028201548152602001600382015481525050905090565b60405180608001604052808573ffffffffffffffffffffffffffffffffffffffff168152602001848152602001838152602001828152506000803373ffffffffffffffffffffffffffffffffffffffff1673ffffffffffffffffffffffffffffffffffffffff16815260200190815260200160002060008201518160000160006101000a81548173ffffffffffffffffffffffffffffffffffffffff021916908373ffffffffffffffffffffffffffffffffffffffff16021790555060208201518160010155604082015181600201556060820151816003015590505050505050565b60006020528060005260406000206000915090508060000160009054906101000a900473ffffffffffffffffffffffffffffffffffffffff16908060010154908060020154908060030154905084565b6040518060800160405280600073ffffffffffffffffffffffffffffffffffffffff1681526020016000815260200160008152602001600081525090565b600073ffffffffffffffffffffffffffffffffffffffff82169050919050565b6000610319826102ee565b9050919050565b6103298161030e565b82525050565b6000819050919050565b6103428161032f565b82525050565b60808201600082015161035e6000850182610320565b5060208201516103716020850182610339565b5060408201516103846040850182610339565b5060608201516103976060850182610339565b50505050565b60006080820190506103b26000830184610348565b92915050565b600080fd5b6103c68161030e565b81146103d157600080fd5b50565b6000813590506103e3816103bd565b92915050565b6103f28161032f565b81146103fd57600080fd5b50565b60008135905061040f816103e9565b92915050565b6000806000806080858703121561042f5761042e6103b8565b5b600061043d878288016103d4565b945050602061044e87828801610400565b935050604061045f87828801610400565b925050606061047087828801610400565b91505092959194509250565b600060208284031215610492576104916103b8565b5b60006104a0848285016103d4565b91505092915050565b6104b28161030e565b82525050565b6104c18161032f565b82525050565b60006080820190506104dc60008301876104a9565b6104e960208301866104b8565b6104f660408301856104b8565b61050360608301846104b8565b9594505050505056fea2646970667358221220e00914d168dc77381990722e8dc466ea8e3c05c14e136af85e7a451565a83a6b64736f6c634300080b0033",
  "immutableReferences": {},
  "source": "// SPDX-License-Identifier: MIT\r\n\r\npragma solidity ^0.8.11;\r\n\r\ncontract MicgroGridContract {\r\n\r\n\r\n    struct EnergyOffer {\r\n        address asset;\r\n        uint256 price;\r\n        uint startDate;\r\n        uint endDate;\r\n    }\r\n\r\n\r\n\r\n    mapping (address => EnergyOffer) public eWOffersList;\r\n\r\n\r\n\r\n    function createEnergyOffer(address asset, uint256 price , uint startDate, uint endDate) external {  \r\n        eWOffersList[msg.sender] = EnergyOffer(asset,price,startDate,endDate);\r\n    }\r\n\r\n    function returnMappingValue() external view returns (EnergyOffer memory) {\r\n        return eWOffersList[msg.sender];\r\n    }  \r\n}",
  "sourcePath": "C:\\Users\\salva\\OneDrive\\Desktop\\progetto-tesi\\EW-did-management\\blockchain\\contracts\\MicroGrid.sol",
  "compiler": {
    "name": "solc",
    "version": "0.8.11+commit.d7f03943.Emscripten.clang"
  },
  "schemaVersion": "3.4.13",
  "updatedAt": "2023-03-20T14:11:11.816Z",
  "devdoc": {
    "kind": "dev",
    "methods": {},
    "version": 1
  },
  "userdoc": {
    "kind": "user",
    "methods": {},
    "version": 1
  }
}