{
  "contractName": "MicroGridContract",
  "abi": [
    {
      "inputs": [
        {
          "internalType": "address",
          "name": "",
          "type": "address"
        }
      ],
      "name": "eWOffersList",
      "outputs": [
        {
          "internalType": "address",
          "name": "asset",
          "type": "address"
        },
        {
          "internalType": "uint256",
          "name": "price",
          "type": "uint256"
        },
        {
          "internalType": "uint256",
          "name": "startDate",
          "type": "uint256"
        },
        {
          "internalType": "uint256",
          "name": "endDate",
          "type": "uint256"
        }
      ],
      "stateMutability": "view",
      "type": "function",
      "constant": true
    },
    {
      "inputs": [
        {
          "internalType": "uint256",
          "name": "",
          "type": "uint256"
        }
      ],
      "name": "listOffers",
      "outputs": [
        {
          "internalType": "address",
          "name": "asset",
          "type": "address"
        },
        {
          "internalType": "uint256",
          "name": "price",
          "type": "uint256"
        },
        {
          "internalType": "uint256",
          "name": "startDate",
          "type": "uint256"
        },
        {
          "internalType": "uint256",
          "name": "endDate",
          "type": "uint256"
        }
      ],
      "stateMutability": "view",
      "type": "function",
      "constant": true
    },
    {
      "inputs": [
        {
          "internalType": "address",
          "name": "asset",
          "type": "address"
        },
        {
          "internalType": "uint256",
          "name": "price",
          "type": "uint256"
        },
        {
          "internalType": "uint256",
          "name": "startDate",
          "type": "uint256"
        },
        {
          "internalType": "uint256",
          "name": "endDate",
          "type": "uint256"
        }
      ],
      "name": "createEnergyOffer",
      "outputs": [],
      "stateMutability": "nonpayable",
      "type": "function"
    },
    {
      "inputs": [],
      "name": "returnOffers",
      "outputs": [
        {
          "components": [
            {
              "internalType": "address",
              "name": "asset",
              "type": "address"
            },
            {
              "internalType": "uint256",
              "name": "price",
              "type": "uint256"
            },
            {
              "internalType": "uint256",
              "name": "startDate",
              "type": "uint256"
            },
            {
              "internalType": "uint256",
              "name": "endDate",
              "type": "uint256"
            }
          ],
          "internalType": "struct MicroGridContract.EnergyOffer[]",
          "name": "list",
          "type": "tuple[]"
        }
      ],
      "stateMutability": "view",
      "type": "function",
      "constant": true
    }
  ],
  "bytecode": "0x608060405234801561001057600080fd5b5061067a806100206000396000f3fe608060405234801561001057600080fd5b506004361061004c5760003560e01c806316b04c9e1461005157806377c468c414610084578063dd2812bd146100a2578063e117ce37146100be575b600080fd5b61006b6004803603810190610066919061037e565b6100f1565b60405161007b94939291906103fb565b60405180910390f35b61008c610151565b6040516100999190610562565b60405180910390f35b6100bc60048036038101906100b791906105b0565b610224565b005b6100d860048036038101906100d39190610617565b6102f3565b6040516100e894939291906103fb565b60405180910390f35b6001818154811061010157600080fd5b90600052602060002090600402016000915090508060000160009054906101000a900473ffffffffffffffffffffffffffffffffffffffff16908060010154908060020154908060030154905084565b60606001805480602002602001604051908101604052809291908181526020016000905b8282101561021b57838290600052602060002090600402016040518060800160405290816000820160009054906101000a900473ffffffffffffffffffffffffffffffffffffffff1673ffffffffffffffffffffffffffffffffffffffff1673ffffffffffffffffffffffffffffffffffffffff168152602001600182015481526020016002820154815260200160038201548152505081526020019060010190610175565b50505050905090565b600160405180608001604052808673ffffffffffffffffffffffffffffffffffffffff16815260200185815260200184815260200183815250908060018154018082558091505060019003906000526020600020906004020160009091909190915060008201518160000160006101000a81548173ffffffffffffffffffffffffffffffffffffffff021916908373ffffffffffffffffffffffffffffffffffffffff160217905550602082015181600101556040820151816002015560608201518160030155505050505050565b60006020528060005260406000206000915090508060000160009054906101000a900473ffffffffffffffffffffffffffffffffffffffff16908060010154908060020154908060030154905084565b600080fd5b6000819050919050565b61035b81610348565b811461036657600080fd5b50565b60008135905061037881610352565b92915050565b60006020828403121561039457610393610343565b5b60006103a284828501610369565b91505092915050565b600073ffffffffffffffffffffffffffffffffffffffff82169050919050565b60006103d6826103ab565b9050919050565b6103e6816103cb565b82525050565b6103f581610348565b82525050565b600060808201905061041060008301876103dd565b61041d60208301866103ec565b61042a60408301856103ec565b61043760608301846103ec565b95945050505050565b600081519050919050565b600082825260208201905092915050565b6000819050602082019050919050565b610475816103cb565b82525050565b61048481610348565b82525050565b6080820160008201516104a0600085018261046c565b5060208201516104b3602085018261047b565b5060408201516104c6604085018261047b565b5060608201516104d9606085018261047b565b50505050565b60006104eb838361048a565b60808301905092915050565b6000602082019050919050565b600061050f82610440565b610519818561044b565b93506105248361045c565b8060005b8381101561055557815161053c88826104df565b9750610547836104f7565b925050600181019050610528565b5085935050505092915050565b6000602082019050818103600083015261057c8184610504565b905092915050565b61058d816103cb565b811461059857600080fd5b50565b6000813590506105aa81610584565b92915050565b600080600080608085870312156105ca576105c9610343565b5b60006105d88782880161059b565b94505060206105e987828801610369565b93505060406105fa87828801610369565b925050606061060b87828801610369565b91505092959194509250565b60006020828403121561062d5761062c610343565b5b600061063b8482850161059b565b9150509291505056fea26469706673582212204d5594eeae760bdf81ca00ee825557a6b7436310d439265ac420719101ab9e8b64736f6c634300080b0033",
  "immutableReferences": {},
  "source": "// SPDX-License-Identifier: MIT\r\n\r\npragma solidity ^0.8.11;\r\n\r\ncontract MicroGridContract {\r\n\r\n\r\n    struct EnergyOffer {\r\n        address asset;\r\n        uint256 price;\r\n        uint startDate;\r\n        uint endDate;\r\n    }\r\n\r\n\r\n\r\n    mapping (address => EnergyOffer) public eWOffersList;\r\n\r\n    EnergyOffer[] public listOffers;\r\n\r\n\r\n    function createEnergyOffer(address asset, uint256 price , uint startDate, uint endDate) external {  \r\n\r\n        // eWOffersList[msg.sender] = EnergyOffer(id++,asset,price,startDate,endDate);\r\n        listOffers.push(EnergyOffer(asset,price,startDate,endDate));\r\n\r\n    }\r\n\r\n    function returnOffers() external view  returns (EnergyOffer[] memory list) {\r\n        list = listOffers;\r\n\r\n        return list;\r\n    }  \r\n}",
  "sourcePath": "C:\\Users\\salva\\OneDrive\\Desktop\\progetto-tesi\\EW-did-management\\blockchain\\contracts\\MicroGrid.sol",
  "compiler": {
    "name": "solc",
    "version": "0.8.11+commit.d7f03943.Emscripten.clang"
  },
  "schemaVersion": "3.4.13",
  "updatedAt": "2023-03-20T17:07:06.325Z",
  "networkType": "ethereum",
  "devdoc": {
    "kind": "dev",
    "methods": {},
    "version": 1
  },
  "userdoc": {
    "kind": "user",
    "methods": {},
    "version": 1
  }
}