{
  "contractName": "MicroGridContract",
  "abi": [
    {
      "anonymous": false,
      "inputs": [
        {
          "indexed": false,
          "internalType": "string",
          "name": "message",
          "type": "string"
        }
      ],
      "name": "OfferCreated",
      "type": "event"
    },
    {
      "anonymous": false,
      "inputs": [
        {
          "indexed": false,
          "internalType": "string",
          "name": "message",
          "type": "string"
        }
      ],
      "name": "RequestCreated",
      "type": "event"
    },
    {
      "inputs": [
        {
          "internalType": "address",
          "name": "",
          "type": "address"
        }
      ],
      "name": "eWOffersList",
      "outputs": [
        {
          "internalType": "address",
          "name": "asset",
          "type": "address"
        },
        {
          "internalType": "uint256",
          "name": "price",
          "type": "uint256"
        },
        {
          "internalType": "uint256",
          "name": "startDate",
          "type": "uint256"
        },
        {
          "internalType": "uint256",
          "name": "endDate",
          "type": "uint256"
        },
        {
          "internalType": "uint256",
          "name": "quantityEnergy",
          "type": "uint256"
        }
      ],
      "stateMutability": "view",
      "type": "function",
      "constant": true
    },
    {
      "inputs": [
        {
          "internalType": "uint256",
          "name": "",
          "type": "uint256"
        }
      ],
      "name": "listOffers",
      "outputs": [
        {
          "internalType": "address",
          "name": "asset",
          "type": "address"
        },
        {
          "internalType": "uint256",
          "name": "price",
          "type": "uint256"
        },
        {
          "internalType": "uint256",
          "name": "startDate",
          "type": "uint256"
        },
        {
          "internalType": "uint256",
          "name": "endDate",
          "type": "uint256"
        },
        {
          "internalType": "uint256",
          "name": "quantityEnergy",
          "type": "uint256"
        }
      ],
      "stateMutability": "view",
      "type": "function",
      "constant": true
    },
    {
      "inputs": [
        {
          "internalType": "uint256",
          "name": "",
          "type": "uint256"
        }
      ],
      "name": "listRequest",
      "outputs": [
        {
          "internalType": "address",
          "name": "sender",
          "type": "address"
        },
        {
          "internalType": "uint256",
          "name": "price",
          "type": "uint256"
        },
        {
          "internalType": "uint256",
          "name": "quantityEnergy",
          "type": "uint256"
        }
      ],
      "stateMutability": "view",
      "type": "function",
      "constant": true
    },
    {
      "inputs": [
        {
          "internalType": "address",
          "name": "",
          "type": "address"
        }
      ],
      "name": "offers",
      "outputs": [
        {
          "internalType": "address",
          "name": "user",
          "type": "address"
        },
        {
          "internalType": "uint256",
          "name": "price",
          "type": "uint256"
        },
        {
          "internalType": "uint256",
          "name": "date",
          "type": "uint256"
        }
      ],
      "stateMutability": "view",
      "type": "function",
      "constant": true
    },
    {
      "inputs": [
        {
          "internalType": "uint256",
          "name": "",
          "type": "uint256"
        }
      ],
      "name": "offersList",
      "outputs": [
        {
          "internalType": "address",
          "name": "user",
          "type": "address"
        },
        {
          "internalType": "uint256",
          "name": "price",
          "type": "uint256"
        },
        {
          "internalType": "uint256",
          "name": "date",
          "type": "uint256"
        }
      ],
      "stateMutability": "view",
      "type": "function",
      "constant": true
    },
    {
      "inputs": [
        {
          "internalType": "address",
          "name": "",
          "type": "address"
        }
      ],
      "name": "tests",
      "outputs": [
        {
          "internalType": "uint256",
          "name": "",
          "type": "uint256"
        }
      ],
      "stateMutability": "view",
      "type": "function",
      "constant": true
    },
    {
      "inputs": [
        {
          "internalType": "address",
          "name": "asset",
          "type": "address"
        },
        {
          "internalType": "uint256",
          "name": "price",
          "type": "uint256"
        },
        {
          "internalType": "uint256",
          "name": "startDate",
          "type": "uint256"
        },
        {
          "internalType": "uint256",
          "name": "endDate",
          "type": "uint256"
        },
        {
          "internalType": "uint256",
          "name": "quantityEnergy",
          "type": "uint256"
        }
      ],
      "name": "createEnergyOffer",
      "outputs": [],
      "stateMutability": "nonpayable",
      "type": "function"
    },
    {
      "inputs": [
        {
          "internalType": "uint256",
          "name": "price",
          "type": "uint256"
        },
        {
          "internalType": "uint256",
          "name": "quantityEnergy",
          "type": "uint256"
        }
      ],
      "name": "createEnergyDemands",
      "outputs": [],
      "stateMutability": "nonpayable",
      "type": "function"
    },
    {
      "inputs": [],
      "name": "getEnergyRequest",
      "outputs": [
        {
          "components": [
            {
              "internalType": "address",
              "name": "sender",
              "type": "address"
            },
            {
              "internalType": "uint256",
              "name": "price",
              "type": "uint256"
            },
            {
              "internalType": "uint256",
              "name": "quantityEnergy",
              "type": "uint256"
            }
          ],
          "internalType": "struct MicroGridContract.EnergyRequest[]",
          "name": "list",
          "type": "tuple[]"
        }
      ],
      "stateMutability": "view",
      "type": "function",
      "constant": true
    },
    {
      "inputs": [],
      "name": "getOffers",
      "outputs": [
        {
          "components": [
            {
              "internalType": "address",
              "name": "asset",
              "type": "address"
            },
            {
              "internalType": "uint256",
              "name": "price",
              "type": "uint256"
            },
            {
              "internalType": "uint256",
              "name": "startDate",
              "type": "uint256"
            },
            {
              "internalType": "uint256",
              "name": "endDate",
              "type": "uint256"
            },
            {
              "internalType": "uint256",
              "name": "quantityEnergy",
              "type": "uint256"
            }
          ],
          "internalType": "struct MicroGridContract.EnergyOffer[]",
          "name": "",
          "type": "tuple[]"
        }
      ],
      "stateMutability": "view",
      "type": "function",
      "constant": true
    },
    {
      "inputs": [
        {
          "internalType": "address",
          "name": "_address",
          "type": "address"
        },
        {
          "internalType": "uint256",
          "name": "price",
          "type": "uint256"
        },
        {
          "internalType": "uint256",
          "name": "date",
          "type": "uint256"
        }
      ],
      "name": "createOffer",
      "outputs": [],
      "stateMutability": "nonpayable",
      "type": "function"
    },
    {
      "inputs": [
        {
          "internalType": "uint256",
          "name": "price",
          "type": "uint256"
        }
      ],
      "name": "createTest",
      "outputs": [],
      "stateMutability": "nonpayable",
      "type": "function"
    },
    {
      "inputs": [],
      "name": "getTestById",
      "outputs": [
        {
          "internalType": "uint256",
          "name": "",
          "type": "uint256"
        }
      ],
      "stateMutability": "view",
      "type": "function",
      "constant": true
    },
    {
      "inputs": [
        {
          "internalType": "address",
          "name": "_address",
          "type": "address"
        }
      ],
      "name": "getOffersByUserAddress",
      "outputs": [
        {
          "components": [
            {
              "internalType": "address",
              "name": "user",
              "type": "address"
            },
            {
              "internalType": "uint256",
              "name": "price",
              "type": "uint256"
            },
            {
              "internalType": "uint256",
              "name": "date",
              "type": "uint256"
            }
          ],
          "internalType": "struct MicroGridContract.Offer",
          "name": "",
          "type": "tuple"
        }
      ],
      "stateMutability": "view",
      "type": "function",
      "constant": true
    },
    {
      "inputs": [],
      "name": "getAllOffers",
      "outputs": [
        {
          "components": [
            {
              "internalType": "address",
              "name": "user",
              "type": "address"
            },
            {
              "internalType": "uint256",
              "name": "price",
              "type": "uint256"
            },
            {
              "internalType": "uint256",
              "name": "date",
              "type": "uint256"
            }
          ],
          "internalType": "struct MicroGridContract.Offer[]",
          "name": "",
          "type": "tuple[]"
        }
      ],
      "stateMutability": "view",
      "type": "function",
      "constant": true
    }
  ],
  "bytecode": "0x608060405234801561001057600080fd5b5061145f806100206000396000f3fe608060405234801561001057600080fd5b50600436106100f55760003560e01c80634a5a9d2211610097578063a165527811610066578063a1655278146102b4578063a491bbb8146102d2578063e0e3c9f7146102ee578063e117ce371461030c576100f5565b80634a5a9d22146102065780634e08407f146102225780638828136c14610252578063990fbe7414610282576100f5565b80633ee992ee116100d35780633ee992ee1461017c578063413bf38f1461019a578063420d4345146101cc5780634865f28d146101ea576100f5565b806308f33bc8146100fa57806316b04c9e1461012c5780631c6c712814610160575b600080fd5b610114600480360381019061010f9190610cdd565b610340565b60405161012393929190610d5a565b60405180910390f35b61014660048036038101906101419190610cdd565b61039a565b604051610157959493929190610d91565b60405180910390f35b61017a60048036038101906101759190610e10565b610400565b005b610184610592565b6040516101919190610f98565b60405180910390f35b6101b460048036038101906101af9190610fba565b61066f565b6040516101c393929190610d5a565b60405180910390f35b6101d46106b9565b6040516101e19190610fe7565b60405180910390f35b61020460048036038101906101ff9190610cdd565b610700565b005b610220600480360381019061021b9190611002565b610747565b005b61023c60048036038101906102379190610fba565b610839565b6040516102499190611084565b60405180910390f35b61026c60048036038101906102679190610fba565b6108fc565b6040516102799190610fe7565b60405180910390f35b61029c60048036038101906102979190610cdd565b610914565b6040516102ab93929190610d5a565b60405180910390f35b6102bc61096e565b6040516102c99190611190565b60405180910390f35b6102ec60048036038101906102e791906111b2565b610a37565b005b6102f6610b4c565b604051610303919061131e565b60405180910390f35b61032660048036038101906103219190610fba565b610c15565b604051610337959493929190610d91565b60405180910390f35b6005818154811061035057600080fd5b90600052602060002090600302016000915090508060000160009054906101000a900473ffffffffffffffffffffffffffffffffffffffff16908060010154908060020154905083565b600381815481106103aa57600080fd5b90600052602060002090600502016000915090508060000160009054906101000a900473ffffffffffffffffffffffffffffffffffffffff16908060010154908060020154908060030154908060040154905085565b600060405180606001604052808573ffffffffffffffffffffffffffffffffffffffff16815260200184815260200183815250905080600160008673ffffffffffffffffffffffffffffffffffffffff1673ffffffffffffffffffffffffffffffffffffffff16815260200190815260200160002060008201518160000160006101000a81548173ffffffffffffffffffffffffffffffffffffffff021916908373ffffffffffffffffffffffffffffffffffffffff1602179055506020820151816001015560408201518160020155905050600560405180606001604052808673ffffffffffffffffffffffffffffffffffffffff16815260200185815260200184815250908060018154018082558091505060019003906000526020600020906003020160009091909190915060008201518160000160006101000a81548173ffffffffffffffffffffffffffffffffffffffff021916908373ffffffffffffffffffffffffffffffffffffffff1602179055506020820151816001015560408201518160020155505050505050565b60606003805480602002602001604051908101604052809291908181526020016000905b8282101561066657838290600052602060002090600502016040518060a00160405290816000820160009054906101000a900473ffffffffffffffffffffffffffffffffffffffff1673ffffffffffffffffffffffffffffffffffffffff1673ffffffffffffffffffffffffffffffffffffffff168152602001600182015481526020016002820154815260200160038201548152602001600482015481525050815260200190600101906105b6565b50505050905090565b60016020528060005260406000206000915090508060000160009054906101000a900473ffffffffffffffffffffffffffffffffffffffff16908060010154908060020154905083565b6000600260003373ffffffffffffffffffffffffffffffffffffffff1673ffffffffffffffffffffffffffffffffffffffff16815260200190815260200160002054905090565b80600260003373ffffffffffffffffffffffffffffffffffffffff1673ffffffffffffffffffffffffffffffffffffffff1681526020019081526020016000208190555050565b600460405180606001604052803373ffffffffffffffffffffffffffffffffffffffff16815260200184815260200183815250908060018154018082558091505060019003906000526020600020906003020160009091909190915060008201518160000160006101000a81548173ffffffffffffffffffffffffffffffffffffffff021916908373ffffffffffffffffffffffffffffffffffffffff160217905550602082015181600101556040820151816002015550507fd8ed69affc76d47aadcc316f3afe208a79c0600dda360f5e5fe729935d1123be60405161082d9061139d565b60405180910390a15050565b610841610c6b565b600160008373ffffffffffffffffffffffffffffffffffffffff1673ffffffffffffffffffffffffffffffffffffffff1681526020019081526020016000206040518060600160405290816000820160009054906101000a900473ffffffffffffffffffffffffffffffffffffffff1673ffffffffffffffffffffffffffffffffffffffff1673ffffffffffffffffffffffffffffffffffffffff168152602001600182015481526020016002820154815250509050919050565b60026020528060005260406000206000915090505481565b6004818154811061092457600080fd5b90600052602060002090600302016000915090508060000160009054906101000a900473ffffffffffffffffffffffffffffffffffffffff16908060010154908060020154905083565b60606005805480602002602001604051908101604052809291908181526020016000905b82821015610a2e57838290600052602060002090600302016040518060600160405290816000820160009054906101000a900473ffffffffffffffffffffffffffffffffffffffff1673ffffffffffffffffffffffffffffffffffffffff1673ffffffffffffffffffffffffffffffffffffffff1681526020016001820154815260200160028201548152505081526020019060010190610992565b50505050905090565b60036040518060a001604052808773ffffffffffffffffffffffffffffffffffffffff16815260200186815260200185815260200184815260200183815250908060018154018082558091505060019003906000526020600020906005020160009091909190915060008201518160000160006101000a81548173ffffffffffffffffffffffffffffffffffffffff021916908373ffffffffffffffffffffffffffffffffffffffff1602179055506020820151816001015560408201518160020155606082015181600301556080820151816004015550507fab5385bdf2087954d79841430d81dc464fd9ac11bbf521d2d9d83f8ca22f2605604051610b3d90611409565b60405180910390a15050505050565b60606004805480602002602001604051908101604052809291908181526020016000905b82821015610c0c57838290600052602060002090600302016040518060600160405290816000820160009054906101000a900473ffffffffffffffffffffffffffffffffffffffff1673ffffffffffffffffffffffffffffffffffffffff1673ffffffffffffffffffffffffffffffffffffffff1681526020016001820154815260200160028201548152505081526020019060010190610b70565b50505050905090565b60006020528060005260406000206000915090508060000160009054906101000a900473ffffffffffffffffffffffffffffffffffffffff16908060010154908060020154908060030154908060040154905085565b6040518060600160405280600073ffffffffffffffffffffffffffffffffffffffff16815260200160008152602001600081525090565b600080fd5b6000819050919050565b610cba81610ca7565b8114610cc557600080fd5b50565b600081359050610cd781610cb1565b92915050565b600060208284031215610cf357610cf2610ca2565b5b6000610d0184828501610cc8565b91505092915050565b600073ffffffffffffffffffffffffffffffffffffffff82169050919050565b6000610d3582610d0a565b9050919050565b610d4581610d2a565b82525050565b610d5481610ca7565b82525050565b6000606082019050610d6f6000830186610d3c565b610d7c6020830185610d4b565b610d896040830184610d4b565b949350505050565b600060a082019050610da66000830188610d3c565b610db36020830187610d4b565b610dc06040830186610d4b565b610dcd6060830185610d4b565b610dda6080830184610d4b565b9695505050505050565b610ded81610d2a565b8114610df857600080fd5b50565b600081359050610e0a81610de4565b92915050565b600080600060608486031215610e2957610e28610ca2565b5b6000610e3786828701610dfb565b9350506020610e4886828701610cc8565b9250506040610e5986828701610cc8565b9150509250925092565b600081519050919050565b600082825260208201905092915050565b6000819050602082019050919050565b610e9881610d2a565b82525050565b610ea781610ca7565b82525050565b60a082016000820151610ec36000850182610e8f565b506020820151610ed66020850182610e9e565b506040820151610ee96040850182610e9e565b506060820151610efc6060850182610e9e565b506080820151610f0f6080850182610e9e565b50505050565b6000610f218383610ead565b60a08301905092915050565b6000602082019050919050565b6000610f4582610e63565b610f4f8185610e6e565b9350610f5a83610e7f565b8060005b83811015610f8b578151610f728882610f15565b9750610f7d83610f2d565b925050600181019050610f5e565b5085935050505092915050565b60006020820190508181036000830152610fb28184610f3a565b905092915050565b600060208284031215610fd057610fcf610ca2565b5b6000610fde84828501610dfb565b91505092915050565b6000602082019050610ffc6000830184610d4b565b92915050565b6000806040838503121561101957611018610ca2565b5b600061102785828601610cc8565b925050602061103885828601610cc8565b9150509250929050565b6060820160008201516110586000850182610e8f565b50602082015161106b6020850182610e9e565b50604082015161107e6040850182610e9e565b50505050565b60006060820190506110996000830184611042565b92915050565b600081519050919050565b600082825260208201905092915050565b6000819050602082019050919050565b6060820160008201516110e16000850182610e8f565b5060208201516110f46020850182610e9e565b5060408201516111076040850182610e9e565b50505050565b600061111983836110cb565b60608301905092915050565b6000602082019050919050565b600061113d8261109f565b61114781856110aa565b9350611152836110bb565b8060005b8381101561118357815161116a888261110d565b975061117583611125565b925050600181019050611156565b5085935050505092915050565b600060208201905081810360008301526111aa8184611132565b905092915050565b600080600080600060a086880312156111ce576111cd610ca2565b5b60006111dc88828901610dfb565b95505060206111ed88828901610cc8565b94505060406111fe88828901610cc8565b935050606061120f88828901610cc8565b925050608061122088828901610cc8565b9150509295509295909350565b600081519050919050565b600082825260208201905092915050565b6000819050602082019050919050565b60608201600082015161126f6000850182610e8f565b5060208201516112826020850182610e9e565b5060408201516112956040850182610e9e565b50505050565b60006112a78383611259565b60608301905092915050565b6000602082019050919050565b60006112cb8261122d565b6112d58185611238565b93506112e083611249565b8060005b838110156113115781516112f8888261129b565b9750611303836112b3565b9250506001810190506112e4565b5085935050505092915050565b6000602082019050818103600083015261133881846112c0565b905092915050565b600082825260208201905092915050565b7f5265717565737420686173206265656e20637265617465640000000000000000600082015250565b6000611387601883611340565b915061139282611351565b602082019050919050565b600060208201905081810360008301526113b68161137a565b9050919050565b7f4f6666657220686173206265656e206372656174656400000000000000000000600082015250565b60006113f3601683611340565b91506113fe826113bd565b602082019050919050565b60006020820190508181036000830152611422816113e6565b905091905056fea2646970667358221220aa72686d0561628394dd04634b9c7aa906e179a4c2b430f1ea7dc9a43adf2a8464736f6c634300080b0033",
  "immutableReferences": {},
  "source": "// SPDX-License-Identifier: MIT\r\n\r\npragma solidity ^0.8.11;\r\n\r\ncontract MicroGridContract {\r\n    struct EnergyOffer {\r\n        address asset;\r\n        uint256 price;\r\n        uint startDate;\r\n        uint endDate;\r\n        uint256 quantityEnergy;\r\n    }\r\n\r\n    struct Offer {\r\n        address user;\r\n        uint256 price;\r\n        uint date;\r\n    }\r\n\r\n    struct EnergyRequest {\r\n        address sender;\r\n        uint256 price;\r\n        uint256 quantityEnergy;\r\n    }\r\n\r\n    mapping(address => EnergyOffer) public eWOffersList;\r\n\r\n    // Mapped betweeen address and offer\r\n    mapping(address => Offer) public offers;\r\n\r\n    mapping(address => uint) public tests;\r\n\r\n    EnergyOffer[] public listOffers;\r\n    EnergyRequest[] public listRequest;\r\n    Offer[] public offersList;\r\n\r\n    /**\r\n     * Events\r\n     */\r\n\r\n    event OfferCreated(string message);\r\n    event RequestCreated(string message);\r\n\r\n    function createEnergyOffer(\r\n        address asset,\r\n        uint256 price,\r\n        uint startDate,\r\n        uint endDate,\r\n        uint256 quantityEnergy\r\n    ) external {\r\n        listOffers.push(\r\n            EnergyOffer(asset, price, startDate, endDate, quantityEnergy)\r\n        );\r\n        emit OfferCreated(\"Offer has been created\");\r\n    }\r\n\r\n    function createEnergyDemands(\r\n        uint256 price,\r\n        uint256 quantityEnergy\r\n    ) external {\r\n        listRequest.push(EnergyRequest(msg.sender, price, quantityEnergy));\r\n        emit RequestCreated(\"Request has been created\");\r\n    }\r\n\r\n    function getEnergyRequest()\r\n        external\r\n        view\r\n        returns (EnergyRequest[] memory list)\r\n    {\r\n        list = listRequest;\r\n        return list;\r\n    }\r\n\r\n    function getOffers() public view returns (EnergyOffer[] memory) {\r\n        return listOffers;\r\n    }\r\n\r\n    /**NEW  */\r\n    function createOffer(address _address, uint price, uint date) external {\r\n        Offer memory newOffer = Offer(_address, price, date);\r\n        offers[_address] = newOffer;\r\n\r\n        // Create a list of all\r\n        offersList.push(Offer(_address, price, date));\r\n    }\r\n\r\n    function createTest(uint price) external {\r\n        tests[msg.sender] = price;\r\n    }\r\n\r\n    function getTestById() public view returns (uint) {\r\n        return tests[msg.sender];\r\n    }\r\n\r\n    function getOffersByUserAddress(\r\n        address _address\r\n    ) public view returns (Offer memory) {\r\n        return offers[_address];\r\n    }\r\n\r\n    function getAllOffers() public view returns (Offer[] memory) {\r\n        return offersList;\r\n    }\r\n}\r\n",
  "sourcePath": "C:\\Users\\salva\\OneDrive\\Desktop\\progetto-tesi\\EW-did-management\\blockchain\\contracts\\MicroGrid.sol",
  "compiler": {
    "name": "solc",
    "version": "0.8.11+commit.d7f03943.Emscripten.clang"
  },
  "schemaVersion": "3.4.13",
  "updatedAt": "2023-04-24T14:25:29.629Z",
  "networkType": "ethereum",
  "devdoc": {
    "kind": "dev",
    "methods": {},
    "version": 1
  },
  "userdoc": {
    "events": {
      "OfferCreated(string)": {
        "notice": "Events"
      }
    },
    "kind": "user",
    "methods": {
      "createOffer(address,uint256,uint256)": {
        "notice": "NEW  "
      }
    },
    "version": 1
  }
}