{
  "contractName": "MicroGridContract",
  "abi": [
    {
      "anonymous": false,
      "inputs": [
        {
          "indexed": false,
          "internalType": "string",
          "name": "message",
          "type": "string"
        }
      ],
      "name": "OfferCreated",
      "type": "event"
    },
    {
      "anonymous": false,
      "inputs": [
        {
          "indexed": false,
          "internalType": "string",
          "name": "message",
          "type": "string"
        }
      ],
      "name": "RequestCreated",
      "type": "event"
    },
    {
      "inputs": [
        {
          "internalType": "address",
          "name": "",
          "type": "address"
        }
      ],
      "name": "eWOffersList",
      "outputs": [
        {
          "internalType": "address",
          "name": "asset",
          "type": "address"
        },
        {
          "internalType": "uint256",
          "name": "price",
          "type": "uint256"
        },
        {
          "internalType": "uint256",
          "name": "startDate",
          "type": "uint256"
        },
        {
          "internalType": "uint256",
          "name": "endDate",
          "type": "uint256"
        },
        {
          "internalType": "uint256",
          "name": "quantityEnergy",
          "type": "uint256"
        }
      ],
      "stateMutability": "view",
      "type": "function",
      "constant": true
    },
    {
      "inputs": [
        {
          "internalType": "uint256",
          "name": "",
          "type": "uint256"
        }
      ],
      "name": "listOffers",
      "outputs": [
        {
          "internalType": "address",
          "name": "asset",
          "type": "address"
        },
        {
          "internalType": "uint256",
          "name": "price",
          "type": "uint256"
        },
        {
          "internalType": "uint256",
          "name": "startDate",
          "type": "uint256"
        },
        {
          "internalType": "uint256",
          "name": "endDate",
          "type": "uint256"
        },
        {
          "internalType": "uint256",
          "name": "quantityEnergy",
          "type": "uint256"
        }
      ],
      "stateMutability": "view",
      "type": "function",
      "constant": true
    },
    {
      "inputs": [
        {
          "internalType": "uint256",
          "name": "",
          "type": "uint256"
        }
      ],
      "name": "listRequest",
      "outputs": [
        {
          "internalType": "address",
          "name": "sender",
          "type": "address"
        },
        {
          "internalType": "uint256",
          "name": "price",
          "type": "uint256"
        },
        {
          "internalType": "uint256",
          "name": "quantityEnergy",
          "type": "uint256"
        }
      ],
      "stateMutability": "view",
      "type": "function",
      "constant": true
    },
    {
      "inputs": [
        {
          "internalType": "address",
          "name": "asset",
          "type": "address"
        },
        {
          "internalType": "uint256",
          "name": "price",
          "type": "uint256"
        },
        {
          "internalType": "uint256",
          "name": "startDate",
          "type": "uint256"
        },
        {
          "internalType": "uint256",
          "name": "endDate",
          "type": "uint256"
        },
        {
          "internalType": "uint256",
          "name": "quantityEnergy",
          "type": "uint256"
        }
      ],
      "name": "createEnergyOffer",
      "outputs": [],
      "stateMutability": "nonpayable",
      "type": "function"
    },
    {
      "inputs": [
        {
          "internalType": "uint256",
          "name": "price",
          "type": "uint256"
        },
        {
          "internalType": "uint256",
          "name": "quantityEnergy",
          "type": "uint256"
        }
      ],
      "name": "createEnergyDemands",
      "outputs": [],
      "stateMutability": "nonpayable",
      "type": "function"
    },
    {
      "inputs": [],
      "name": "getEnergyRequest",
      "outputs": [
        {
          "components": [
            {
              "internalType": "address",
              "name": "sender",
              "type": "address"
            },
            {
              "internalType": "uint256",
              "name": "price",
              "type": "uint256"
            },
            {
              "internalType": "uint256",
              "name": "quantityEnergy",
              "type": "uint256"
            }
          ],
          "internalType": "struct MicroGridContract.EnergyRequest[]",
          "name": "list",
          "type": "tuple[]"
        }
      ],
      "stateMutability": "view",
      "type": "function",
      "constant": true
    },
    {
      "inputs": [],
      "name": "getOffers",
      "outputs": [
        {
          "components": [
            {
              "internalType": "address",
              "name": "asset",
              "type": "address"
            },
            {
              "internalType": "uint256",
              "name": "price",
              "type": "uint256"
            },
            {
              "internalType": "uint256",
              "name": "startDate",
              "type": "uint256"
            },
            {
              "internalType": "uint256",
              "name": "endDate",
              "type": "uint256"
            },
            {
              "internalType": "uint256",
              "name": "quantityEnergy",
              "type": "uint256"
            }
          ],
          "internalType": "struct MicroGridContract.EnergyOffer[]",
          "name": "",
          "type": "tuple[]"
        }
      ],
      "stateMutability": "view",
      "type": "function",
      "constant": true
    }
  ],
  "bytecode": "0x608060405234801561001057600080fd5b50610c32806100206000396000f3fe608060405234801561001057600080fd5b506004361061007d5760003560e01c8063990fbe741161005b578063990fbe74146100f0578063a491bbb814610122578063e0e3c9f71461013e578063e117ce371461015c5761007d565b806316b04c9e146100825780633ee992ee146100b65780634a5a9d22146100d4575b600080fd5b61009c6004803603810190610097919061068e565b610190565b6040516100ad95949392919061070b565b60405180910390f35b6100be6101f6565b6040516100cb9190610893565b60405180910390f35b6100ee60048036038101906100e991906108b5565b6102d3565b005b61010a6004803603810190610105919061068e565b6103c5565b604051610119939291906108f5565b60405180910390f35b61013c60048036038101906101379190610958565b61041f565b005b610146610534565b6040516101539190610ac4565b60405180910390f35b61017660048036038101906101719190610ae6565b6105fd565b60405161018795949392919061070b565b60405180910390f35b600181815481106101a057600080fd5b90600052602060002090600502016000915090508060000160009054906101000a900473ffffffffffffffffffffffffffffffffffffffff16908060010154908060020154908060030154908060040154905085565b60606001805480602002602001604051908101604052809291908181526020016000905b828210156102ca57838290600052602060002090600502016040518060a00160405290816000820160009054906101000a900473ffffffffffffffffffffffffffffffffffffffff1673ffffffffffffffffffffffffffffffffffffffff1673ffffffffffffffffffffffffffffffffffffffff1681526020016001820154815260200160028201548152602001600382015481526020016004820154815250508152602001906001019061021a565b50505050905090565b600260405180606001604052803373ffffffffffffffffffffffffffffffffffffffff16815260200184815260200183815250908060018154018082558091505060019003906000526020600020906003020160009091909190915060008201518160000160006101000a81548173ffffffffffffffffffffffffffffffffffffffff021916908373ffffffffffffffffffffffffffffffffffffffff160217905550602082015181600101556040820151816002015550507fd8ed69affc76d47aadcc316f3afe208a79c0600dda360f5e5fe729935d1123be6040516103b990610b70565b60405180910390a15050565b600281815481106103d557600080fd5b90600052602060002090600302016000915090508060000160009054906101000a900473ffffffffffffffffffffffffffffffffffffffff16908060010154908060020154905083565b60016040518060a001604052808773ffffffffffffffffffffffffffffffffffffffff16815260200186815260200185815260200184815260200183815250908060018154018082558091505060019003906000526020600020906005020160009091909190915060008201518160000160006101000a81548173ffffffffffffffffffffffffffffffffffffffff021916908373ffffffffffffffffffffffffffffffffffffffff1602179055506020820151816001015560408201518160020155606082015181600301556080820151816004015550507fab5385bdf2087954d79841430d81dc464fd9ac11bbf521d2d9d83f8ca22f260560405161052590610bdc565b60405180910390a15050505050565b60606002805480602002602001604051908101604052809291908181526020016000905b828210156105f457838290600052602060002090600302016040518060600160405290816000820160009054906101000a900473ffffffffffffffffffffffffffffffffffffffff1673ffffffffffffffffffffffffffffffffffffffff1673ffffffffffffffffffffffffffffffffffffffff1681526020016001820154815260200160028201548152505081526020019060010190610558565b50505050905090565b60006020528060005260406000206000915090508060000160009054906101000a900473ffffffffffffffffffffffffffffffffffffffff16908060010154908060020154908060030154908060040154905085565b600080fd5b6000819050919050565b61066b81610658565b811461067657600080fd5b50565b60008135905061068881610662565b92915050565b6000602082840312156106a4576106a3610653565b5b60006106b284828501610679565b91505092915050565b600073ffffffffffffffffffffffffffffffffffffffff82169050919050565b60006106e6826106bb565b9050919050565b6106f6816106db565b82525050565b61070581610658565b82525050565b600060a08201905061072060008301886106ed565b61072d60208301876106fc565b61073a60408301866106fc565b61074760608301856106fc565b61075460808301846106fc565b9695505050505050565b600081519050919050565b600082825260208201905092915050565b6000819050602082019050919050565b610793816106db565b82525050565b6107a281610658565b82525050565b60a0820160008201516107be600085018261078a565b5060208201516107d16020850182610799565b5060408201516107e46040850182610799565b5060608201516107f76060850182610799565b50608082015161080a6080850182610799565b50505050565b600061081c83836107a8565b60a08301905092915050565b6000602082019050919050565b60006108408261075e565b61084a8185610769565b93506108558361077a565b8060005b8381101561088657815161086d8882610810565b975061087883610828565b925050600181019050610859565b5085935050505092915050565b600060208201905081810360008301526108ad8184610835565b905092915050565b600080604083850312156108cc576108cb610653565b5b60006108da85828601610679565b92505060206108eb85828601610679565b9150509250929050565b600060608201905061090a60008301866106ed565b61091760208301856106fc565b61092460408301846106fc565b949350505050565b610935816106db565b811461094057600080fd5b50565b6000813590506109528161092c565b92915050565b600080600080600060a0868803121561097457610973610653565b5b600061098288828901610943565b955050602061099388828901610679565b94505060406109a488828901610679565b93505060606109b588828901610679565b92505060806109c688828901610679565b9150509295509295909350565b600081519050919050565b600082825260208201905092915050565b6000819050602082019050919050565b606082016000820151610a15600085018261078a565b506020820151610a286020850182610799565b506040820151610a3b6040850182610799565b50505050565b6000610a4d83836109ff565b60608301905092915050565b6000602082019050919050565b6000610a71826109d3565b610a7b81856109de565b9350610a86836109ef565b8060005b83811015610ab7578151610a9e8882610a41565b9750610aa983610a59565b925050600181019050610a8a565b5085935050505092915050565b60006020820190508181036000830152610ade8184610a66565b905092915050565b600060208284031215610afc57610afb610653565b5b6000610b0a84828501610943565b91505092915050565b600082825260208201905092915050565b7f5265717565737420686173206265656e20637265617465640000000000000000600082015250565b6000610b5a601883610b13565b9150610b6582610b24565b602082019050919050565b60006020820190508181036000830152610b8981610b4d565b9050919050565b7f4f6666657220686173206265656e206372656174656400000000000000000000600082015250565b6000610bc6601683610b13565b9150610bd182610b90565b602082019050919050565b60006020820190508181036000830152610bf581610bb9565b905091905056fea2646970667358221220683e87293cd8027469780112a5c3afcb0588f5a3d403ad4678357ff73f9d28c764736f6c634300080b0033",
  "immutableReferences": {},
  "source": "// SPDX-License-Identifier: MIT\r\n\r\npragma solidity ^0.8.11;\r\n\r\ncontract MicroGridContract {\r\n    struct EnergyOffer {\r\n        address asset;\r\n        uint256 price;\r\n        uint startDate;\r\n        uint endDate;\r\n        uint256 quantityEnergy;\r\n    }\r\n\r\n    struct EnergyRequest {\r\n        address sender;\r\n        uint256 price;\r\n        uint256 quantityEnergy;\r\n    }\r\n\r\n    mapping(address => EnergyOffer) public eWOffersList;\r\n    EnergyOffer[] public listOffers;\r\n    EnergyRequest[] public listRequest;\r\n\r\n    /**\r\n     * Events\r\n     */\r\n\r\n    event OfferCreated(string message);\r\n    event RequestCreated(string message);\r\n\r\n    function createEnergyOffer(\r\n        address asset,\r\n        uint256 price,\r\n        uint startDate,\r\n        uint endDate,\r\n        uint256 quantityEnergy\r\n    ) external {\r\n        listOffers.push(\r\n            EnergyOffer(asset, price, startDate, endDate, quantityEnergy)\r\n        );\r\n        emit OfferCreated(\"Offer has been created\");\r\n    }\r\n\r\n    function createEnergyDemands(\r\n        uint256 price,\r\n        uint256 quantityEnergy\r\n    ) external {\r\n        listRequest.push(EnergyRequest(msg.sender, price, quantityEnergy));\r\n        emit RequestCreated(\"Request has been created\");\r\n    }\r\n\r\n    function getEnergyRequest()\r\n        external\r\n        view\r\n        returns (EnergyRequest[] memory list)\r\n    {\r\n        list = listRequest;\r\n        return list;\r\n    }\r\n\r\n    function getOffers() public view returns (EnergyOffer[] memory) {\r\n        return listOffers;\r\n    }\r\n}\r\n",
  "sourcePath": "C:\\Users\\salva\\OneDrive\\Desktop\\progetto-tesi\\EW-did-management\\blockchain\\contracts\\MicroGrid.sol",
  "compiler": {
    "name": "solc",
    "version": "0.8.11+commit.d7f03943.Emscripten.clang"
  },
  "schemaVersion": "3.4.13",
  "updatedAt": "2023-03-23T17:02:05.791Z",
  "networkType": "ethereum",
  "devdoc": {
    "kind": "dev",
    "methods": {},
    "version": 1
  },
  "userdoc": {
    "events": {
      "OfferCreated(string)": {
        "notice": "Events"
      }
    },
    "kind": "user",
    "methods": {},
    "version": 1
  }
}